{
	"1/zombiefeeding.sol": {
		"ZombieFeeding": {
			"abi": [
				{
					"anonymous": false,
					"inputs": [
						{
							"indexed": false,
							"internalType": "uint256",
							"name": "zombieId",
							"type": "uint256"
						},
						{
							"indexed": false,
							"internalType": "string",
							"name": "name",
							"type": "string"
						},
						{
							"indexed": false,
							"internalType": "uint256",
							"name": "dna",
							"type": "uint256"
						}
					],
					"name": "NewZombie",
					"type": "event"
				},
				{
					"inputs": [
						{
							"internalType": "string",
							"name": "_name",
							"type": "string"
						}
					],
					"name": "createRandomZombie",
					"outputs": [],
					"stateMutability": "nonpayable",
					"type": "function"
				},
				{
					"inputs": [
						{
							"internalType": "uint256",
							"name": "_zombieId",
							"type": "uint256"
						},
						{
							"internalType": "uint256",
							"name": "_targetDna",
							"type": "uint256"
						}
					],
					"name": "feedAndMultiply",
					"outputs": [],
					"stateMutability": "nonpayable",
					"type": "function"
				},
				{
					"inputs": [
						{
							"internalType": "uint256",
							"name": "",
							"type": "uint256"
						}
					],
					"name": "zombieToOwner",
					"outputs": [
						{
							"internalType": "address",
							"name": "",
							"type": "address"
						}
					],
					"stateMutability": "view",
					"type": "function"
				},
				{
					"inputs": [
						{
							"internalType": "uint256",
							"name": "",
							"type": "uint256"
						}
					],
					"name": "zombies",
					"outputs": [
						{
							"internalType": "string",
							"name": "name",
							"type": "string"
						},
						{
							"internalType": "uint256",
							"name": "dna",
							"type": "uint256"
						}
					],
					"stateMutability": "view",
					"type": "function"
				}
			],
			"devdoc": {
				"kind": "dev",
				"methods": {},
				"version": 1
			},
			"evm": {
				"assembly": "    /* \"1/zombiefeeding.sol\":177:528  contract ZombieFeeding is ZombieFactory {... */\n  mstore(0x40, 0x80)\n    /* \"1/zombiefactory.sol\":253:255  16 */\n  0x10\n    /* \"1/zombiefactory.sol\":236:255  uint dnaDigits = 16 */\n  0x00\n  sstore\n    /* \"1/zombiefactory.sol\":285:294  dnaDigits */\n  sload(0x00)\n    /* \"1/zombiefactory.sol\":279:281  10 */\n  0x0a\n    /* \"1/zombiefactory.sol\":279:294  10 ** dnaDigits */\n  tag_1\n  swap2\n  swap1\n  tag_2\n  jump\t// in\ntag_1:\n    /* \"1/zombiefactory.sol\":261:294  uint dnaModulus = 10 ** dnaDigits */\n  0x01\n  sstore\n    /* \"1/zombiefeeding.sol\":177:528  contract ZombieFeeding is ZombieFactory {... */\n  callvalue\n  dup1\n  iszero\n  tag_3\n  jumpi\n  0x00\n  dup1\n  revert\ntag_3:\n  pop\n  jump(tag_4)\n    /* \"#utility.yul\":7:187   */\ntag_5:\n    /* \"#utility.yul\":55:132   */\n  0x4e487b7100000000000000000000000000000000000000000000000000000000\n    /* \"#utility.yul\":52:53   */\n  0x00\n    /* \"#utility.yul\":45:133   */\n  mstore\n    /* \"#utility.yul\":152:156   */\n  0x11\n    /* \"#utility.yul\":149:150   */\n  0x04\n    /* \"#utility.yul\":142:157   */\n  mstore\n    /* \"#utility.yul\":176:180   */\n  0x24\n    /* \"#utility.yul\":173:174   */\n  0x00\n    /* \"#utility.yul\":166:181   */\n  revert\n    /* \"#utility.yul\":193:295   */\ntag_6:\n    /* \"#utility.yul\":235:243   */\n  0x00\n    /* \"#utility.yul\":282:287   */\n  dup2\n    /* \"#utility.yul\":279:280   */\n  0x01\n    /* \"#utility.yul\":275:288   */\n  shr\n    /* \"#utility.yul\":254:288   */\n  swap1\n  pop\n    /* \"#utility.yul\":193:295   */\n  swap2\n  swap1\n  pop\n  jump\t// out\n    /* \"#utility.yul\":301:1149   */\ntag_7:\n    /* \"#utility.yul\":362:367   */\n  0x00\n    /* \"#utility.yul\":369:373   */\n  dup1\n    /* \"#utility.yul\":393:399   */\n  dup3\n    /* \"#utility.yul\":384:399   */\n  swap2\n  pop\n    /* \"#utility.yul\":417:422   */\n  dup4\n    /* \"#utility.yul\":408:422   */\n  swap1\n  pop\n    /* \"#utility.yul\":431:1143   */\ntag_14:\n    /* \"#utility.yul\":452:453   */\n  0x01\n    /* \"#utility.yul\":442:450   */\n  dup6\n    /* \"#utility.yul\":439:454   */\n  gt\n    /* \"#utility.yul\":431:1143   */\n  iszero\n  tag_16\n  jumpi\n    /* \"#utility.yul\":547:551   */\n  dup1\n    /* \"#utility.yul\":542:545   */\n  dup7\n    /* \"#utility.yul\":538:552   */\n  div\n    /* \"#utility.yul\":532:536   */\n  dup2\n    /* \"#utility.yul\":529:553   */\n  gt\n    /* \"#utility.yul\":526:576   */\n  iszero\n  tag_17\n  jumpi\n    /* \"#utility.yul\":556:574   */\n  tag_18\n  tag_5\n  jump\t// in\ntag_18:\n    /* \"#utility.yul\":526:576   */\ntag_17:\n    /* \"#utility.yul\":606:607   */\n  0x01\n    /* \"#utility.yul\":596:604   */\n  dup6\n    /* \"#utility.yul\":592:608   */\n  and\n    /* \"#utility.yul\":589:1040   */\n  iszero\n  tag_19\n  jumpi\n    /* \"#utility.yul\":1021:1025   */\n  dup1\n    /* \"#utility.yul\":1014:1019   */\n  dup3\n    /* \"#utility.yul\":1010:1026   */\n  mul\n    /* \"#utility.yul\":1001:1026   */\n  swap2\n  pop\n    /* \"#utility.yul\":589:1040   */\ntag_19:\n    /* \"#utility.yul\":1071:1075   */\n  dup1\n    /* \"#utility.yul\":1065:1069   */\n  dup2\n    /* \"#utility.yul\":1061:1076   */\n  mul\n    /* \"#utility.yul\":1053:1076   */\n  swap1\n  pop\n    /* \"#utility.yul\":1101:1133   */\n  tag_20\n    /* \"#utility.yul\":1124:1132   */\n  dup6\n    /* \"#utility.yul\":1101:1133   */\n  tag_6\n  jump\t// in\ntag_20:\n    /* \"#utility.yul\":1089:1133   */\n  swap5\n  pop\n    /* \"#utility.yul\":431:1143   */\n  jump(tag_14)\ntag_16:\n    /* \"#utility.yul\":301:1149   */\n  swap5\n  pop\n  swap5\n  swap3\n  pop\n  pop\n  pop\n  jump\t// out\n    /* \"#utility.yul\":1155:2228   */\ntag_8:\n    /* \"#utility.yul\":1209:1214   */\n  0x00\n    /* \"#utility.yul\":1400:1408   */\n  dup3\n    /* \"#utility.yul\":1390:1430   */\n  tag_22\n  jumpi\n    /* \"#utility.yul\":1421:1422   */\n  0x01\n    /* \"#utility.yul\":1412:1422   */\n  swap1\n  pop\n    /* \"#utility.yul\":1423:1428   */\n  jump(tag_21)\n    /* \"#utility.yul\":1390:1430   */\ntag_22:\n    /* \"#utility.yul\":1449:1453   */\n  dup2\n    /* \"#utility.yul\":1439:1475   */\n  tag_23\n  jumpi\n    /* \"#utility.yul\":1466:1467   */\n  0x00\n    /* \"#utility.yul\":1457:1467   */\n  swap1\n  pop\n    /* \"#utility.yul\":1468:1473   */\n  jump(tag_21)\n    /* \"#utility.yul\":1439:1475   */\ntag_23:\n    /* \"#utility.yul\":1535:1539   */\n  dup2\n    /* \"#utility.yul\":1583:1584   */\n  0x01\n    /* \"#utility.yul\":1578:1605   */\n  dup2\n  eq\n  tag_25\n  jumpi\n    /* \"#utility.yul\":1619:1620   */\n  0x02\n    /* \"#utility.yul\":1614:1805   */\n  dup2\n  eq\n  tag_26\n  jumpi\n    /* \"#utility.yul\":1528:1805   */\n  jump(tag_24)\n    /* \"#utility.yul\":1578:1605   */\ntag_25:\n    /* \"#utility.yul\":1596:1597   */\n  0x01\n    /* \"#utility.yul\":1587:1597   */\n  swap2\n  pop\n    /* \"#utility.yul\":1598:1603   */\n  pop\n  jump(tag_21)\n    /* \"#utility.yul\":1614:1805   */\ntag_26:\n    /* \"#utility.yul\":1659:1662   */\n  0xff\n    /* \"#utility.yul\":1649:1657   */\n  dup5\n    /* \"#utility.yul\":1646:1663   */\n  gt\n    /* \"#utility.yul\":1643:1686   */\n  iszero\n  tag_27\n  jumpi\n    /* \"#utility.yul\":1666:1684   */\n  tag_28\n  tag_5\n  jump\t// in\ntag_28:\n    /* \"#utility.yul\":1643:1686   */\ntag_27:\n    /* \"#utility.yul\":1715:1723   */\n  dup4\n    /* \"#utility.yul\":1712:1713   */\n  0x02\n    /* \"#utility.yul\":1708:1724   */\n  exp\n    /* \"#utility.yul\":1699:1724   */\n  swap2\n  pop\n    /* \"#utility.yul\":1750:1753   */\n  dup5\n    /* \"#utility.yul\":1743:1748   */\n  dup3\n    /* \"#utility.yul\":1740:1754   */\n  gt\n    /* \"#utility.yul\":1737:1777   */\n  iszero\n  tag_29\n  jumpi\n    /* \"#utility.yul\":1757:1775   */\n  tag_30\n  tag_5\n  jump\t// in\ntag_30:\n    /* \"#utility.yul\":1737:1777   */\ntag_29:\n    /* \"#utility.yul\":1790:1795   */\n  pop\n  jump(tag_21)\n    /* \"#utility.yul\":1528:1805   */\ntag_24:\n  pop\n    /* \"#utility.yul\":1914:1916   */\n  0x20\n    /* \"#utility.yul\":1904:1912   */\n  dup4\n    /* \"#utility.yul\":1901:1917   */\n  lt\n    /* \"#utility.yul\":1895:1898   */\n  0x0133\n    /* \"#utility.yul\":1889:1893   */\n  dup4\n    /* \"#utility.yul\":1886:1899   */\n  lt\n    /* \"#utility.yul\":1882:1918   */\n  and\n    /* \"#utility.yul\":1864:1866   */\n  0x4e\n    /* \"#utility.yul\":1854:1862   */\n  dup5\n    /* \"#utility.yul\":1851:1867   */\n  lt\n    /* \"#utility.yul\":1846:1848   */\n  0x0b\n    /* \"#utility.yul\":1840:1844   */\n  dup5\n    /* \"#utility.yul\":1837:1849   */\n  lt\n    /* \"#utility.yul\":1833:1868   */\n  and\n    /* \"#utility.yul\":1817:1928   */\n  or\n    /* \"#utility.yul\":1814:2060   */\n  iszero\n  tag_31\n  jumpi\n    /* \"#utility.yul\":1970:1978   */\n  dup3\n    /* \"#utility.yul\":1964:1968   */\n  dup3\n    /* \"#utility.yul\":1960:1979   */\n  exp\n    /* \"#utility.yul\":1951:1979   */\n  swap1\n  pop\n    /* \"#utility.yul\":2005:2008   */\n  dup4\n    /* \"#utility.yul\":1998:2003   */\n  dup2\n    /* \"#utility.yul\":1995:2009   */\n  gt\n    /* \"#utility.yul\":1992:2032   */\n  iszero\n  tag_32\n  jumpi\n    /* \"#utility.yul\":2012:2030   */\n  tag_33\n  tag_5\n  jump\t// in\ntag_33:\n    /* \"#utility.yul\":1992:2032   */\ntag_32:\n    /* \"#utility.yul\":2045:2050   */\n  jump(tag_21)\n    /* \"#utility.yul\":1814:2060   */\ntag_31:\n    /* \"#utility.yul\":2085:2127   */\n  tag_34\n    /* \"#utility.yul\":2123:2126   */\n  dup5\n    /* \"#utility.yul\":2113:2121   */\n  dup5\n    /* \"#utility.yul\":2107:2111   */\n  dup5\n    /* \"#utility.yul\":2104:2105   */\n  0x01\n    /* \"#utility.yul\":2085:2127   */\n  tag_7\n  jump\t// in\ntag_34:\n    /* \"#utility.yul\":2070:2127   */\n  swap3\n  pop\n  swap1\n  pop\n    /* \"#utility.yul\":2159:2163   */\n  dup2\n    /* \"#utility.yul\":2154:2157   */\n  dup5\n    /* \"#utility.yul\":2150:2164   */\n  div\n    /* \"#utility.yul\":2143:2148   */\n  dup2\n    /* \"#utility.yul\":2140:2165   */\n  gt\n    /* \"#utility.yul\":2137:2188   */\n  iszero\n  tag_35\n  jumpi\n    /* \"#utility.yul\":2168:2186   */\n  tag_36\n  tag_5\n  jump\t// in\ntag_36:\n    /* \"#utility.yul\":2137:2188   */\ntag_35:\n    /* \"#utility.yul\":2217:2221   */\n  dup2\n    /* \"#utility.yul\":2210:2215   */\n  dup2\n    /* \"#utility.yul\":2206:2222   */\n  mul\n    /* \"#utility.yul\":2197:2222   */\n  swap1\n  pop\n    /* \"#utility.yul\":1155:2228   */\ntag_21:\n  swap4\n  swap3\n  pop\n  pop\n  pop\n  jump\t// out\n    /* \"#utility.yul\":2234:2311   */\ntag_9:\n    /* \"#utility.yul\":2271:2278   */\n  0x00\n    /* \"#utility.yul\":2300:2305   */\n  dup2\n    /* \"#utility.yul\":2289:2305   */\n  swap1\n  pop\n    /* \"#utility.yul\":2234:2311   */\n  swap2\n  swap1\n  pop\n  jump\t// out\n    /* \"#utility.yul\":2317:2602   */\ntag_2:\n    /* \"#utility.yul\":2377:2382   */\n  0x00\n    /* \"#utility.yul\":2401:2424   */\n  tag_39\n    /* \"#utility.yul\":2419:2423   */\n  dup3\n    /* \"#utility.yul\":2401:2424   */\n  tag_9\n  jump\t// in\ntag_39:\n    /* \"#utility.yul\":2393:2424   */\n  swap2\n  pop\n    /* \"#utility.yul\":2445:2472   */\n  tag_40\n    /* \"#utility.yul\":2463:2471   */\n  dup4\n    /* \"#utility.yul\":2445:2472   */\n  tag_9\n  jump\t// in\ntag_40:\n    /* \"#utility.yul\":2433:2472   */\n  swap3\n  pop\n    /* \"#utility.yul\":2491:2595   */\n  tag_41\n    /* \"#utility.yul\":2528:2594   */\n  0xffffffffffffffffffffffffffffffffffffffffffffffffffffffffffffffff\n    /* \"#utility.yul\":2518:2526   */\n  dup5\n    /* \"#utility.yul\":2512:2516   */\n  dup5\n    /* \"#utility.yul\":2491:2595   */\n  tag_8\n  jump\t// in\ntag_41:\n    /* \"#utility.yul\":2482:2595   */\n  swap1\n  pop\n    /* \"#utility.yul\":2317:2602   */\n  swap3\n  swap2\n  pop\n  pop\n  jump\t// out\n    /* \"1/zombiefeeding.sol\":177:528  contract ZombieFeeding is ZombieFactory {... */\ntag_4:\n  dataSize(sub_0)\n  dup1\n  dataOffset(sub_0)\n  0x00\n  codecopy\n  0x00\n  return\nstop\n\nsub_0: assembly {\n        /* \"1/zombiefeeding.sol\":177:528  contract ZombieFeeding is ZombieFactory {... */\n      mstore(0x40, 0x80)\n      callvalue\n      dup1\n      iszero\n      tag_1\n      jumpi\n      0x00\n      dup1\n      revert\n    tag_1:\n      pop\n      jumpi(tag_2, lt(calldatasize, 0x04))\n      shr(0xe0, calldataload(0x00))\n      dup1\n      0x0dedffb8\n      eq\n      tag_3\n      jumpi\n      dup1\n      0x2052465e\n      eq\n      tag_4\n      jumpi\n      dup1\n      0x528b7b8f\n      eq\n      tag_5\n      jumpi\n      dup1\n      0x7bff0a01\n      eq\n      tag_6\n      jumpi\n    tag_2:\n      0x00\n      dup1\n      revert\n        /* \"1/zombiefeeding.sol\":222:525  function feedAndMultiply(uint _zombieId, uint _targetDna) public {... */\n    tag_3:\n      tag_7\n      0x04\n      dup1\n      calldatasize\n      sub\n      dup2\n      add\n      swap1\n      tag_8\n      swap2\n      swap1\n      tag_9\n      jump\t// in\n    tag_8:\n      tag_10\n      jump\t// in\n    tag_7:\n      stop\n        /* \"1/zombiefactory.sol\":367:390  Zombie[] public zombies */\n    tag_4:\n      tag_11\n      0x04\n      dup1\n      calldatasize\n      sub\n      dup2\n      add\n      swap1\n      tag_12\n      swap2\n      swap1\n      tag_13\n      jump\t// in\n    tag_12:\n      tag_14\n      jump\t// in\n    tag_11:\n      mload(0x40)\n      tag_15\n      swap3\n      swap2\n      swap1\n      tag_16\n      jump\t// in\n    tag_15:\n      mload(0x40)\n      dup1\n      swap2\n      sub\n      swap1\n      return\n        /* \"1/zombiefactory.sol\":397:443  mapping (uint => address) public zombieToOwner */\n    tag_5:\n      tag_17\n      0x04\n      dup1\n      calldatasize\n      sub\n      dup2\n      add\n      swap1\n      tag_18\n      swap2\n      swap1\n      tag_13\n      jump\t// in\n    tag_18:\n      tag_19\n      jump\t// in\n    tag_17:\n      mload(0x40)\n      tag_20\n      swap2\n      swap1\n      tag_21\n      jump\t// in\n    tag_20:\n      mload(0x40)\n      dup1\n      swap2\n      sub\n      swap1\n      return\n        /* \"1/zombiefactory.sol\":999:1203  function createRandomZombie(string memory _name) public {... */\n    tag_6:\n      tag_22\n      0x04\n      dup1\n      calldatasize\n      sub\n      dup2\n      add\n      swap1\n      tag_23\n      swap2\n      swap1\n      tag_24\n      jump\t// in\n    tag_23:\n      tag_25\n      jump\t// in\n    tag_22:\n      stop\n        /* \"1/zombiefeeding.sol\":222:525  function feedAndMultiply(uint _zombieId, uint _targetDna) public {... */\n    tag_10:\n        /* \"1/zombiefeeding.sol\":315:328  zombieToOwner */\n      0x03\n        /* \"1/zombiefeeding.sol\":315:339  zombieToOwner[_zombieId] */\n      0x00\n        /* \"1/zombiefeeding.sol\":329:338  _zombieId */\n      dup4\n        /* \"1/zombiefeeding.sol\":315:339  zombieToOwner[_zombieId] */\n      dup2\n      mstore\n      0x20\n      add\n      swap1\n      dup2\n      mstore\n      0x20\n      add\n      0x00\n      keccak256\n      0x00\n      swap1\n      sload\n      swap1\n      0x0100\n      exp\n      swap1\n      div\n      0xffffffffffffffffffffffffffffffffffffffff\n      and\n        /* \"1/zombiefeeding.sol\":301:339  msg.sender == zombieToOwner[_zombieId] */\n      0xffffffffffffffffffffffffffffffffffffffff\n      and\n        /* \"1/zombiefeeding.sol\":301:311  msg.sender */\n      caller\n        /* \"1/zombiefeeding.sol\":301:339  msg.sender == zombieToOwner[_zombieId] */\n      0xffffffffffffffffffffffffffffffffffffffff\n      and\n      eq\n        /* \"1/zombiefeeding.sol\":293:340  require(msg.sender == zombieToOwner[_zombieId]) */\n      tag_27\n      jumpi\n      0x00\n      dup1\n      revert\n    tag_27:\n        /* \"1/zombiefeeding.sol\":346:369  Zombie storage myZombie */\n      0x00\n        /* \"1/zombiefeeding.sol\":372:379  zombies */\n      0x02\n        /* \"1/zombiefeeding.sol\":380:389  _zombieId */\n      dup4\n        /* \"1/zombiefeeding.sol\":372:390  zombies[_zombieId] */\n      dup2\n      sload\n      dup2\n      lt\n      tag_28\n      jumpi\n      tag_29\n      tag_30\n      jump\t// in\n    tag_29:\n    tag_28:\n      swap1\n      0x00\n      mstore\n      keccak256(0x00, 0x20)\n      swap1\n      0x02\n      mul\n      add\n        /* \"1/zombiefeeding.sol\":346:390  Zombie storage myZombie = zombies[_zombieId] */\n      swap1\n      pop\n        /* \"1/zombiefeeding.sol\":422:432  dnaModulus */\n      sload(0x01)\n        /* \"1/zombiefeeding.sol\":409:419  _targetDna */\n      dup3\n        /* \"1/zombiefeeding.sol\":409:432  _targetDna % dnaModulus */\n      tag_32\n      swap2\n      swap1\n      tag_33\n      jump\t// in\n    tag_32:\n        /* \"1/zombiefeeding.sol\":396:432  _targetDna = _targetDna % dnaModulus */\n      swap2\n      pop\n        /* \"1/zombiefeeding.sol\":438:449  uint newDna */\n      0x00\n        /* \"1/zombiefeeding.sol\":482:483  2 */\n      0x02\n        /* \"1/zombiefeeding.sol\":468:478  _targetDna */\n      dup4\n        /* \"1/zombiefeeding.sol\":453:461  myZombie */\n      dup4\n        /* \"1/zombiefeeding.sol\":453:465  myZombie.dna */\n      0x01\n      add\n      sload\n        /* \"1/zombiefeeding.sol\":453:478  myZombie.dna + _targetDna */\n      tag_34\n      swap2\n      swap1\n      tag_35\n      jump\t// in\n    tag_34:\n        /* \"1/zombiefeeding.sol\":452:483  (myZombie.dna + _targetDna) / 2 */\n      tag_36\n      swap2\n      swap1\n      tag_37\n      jump\t// in\n    tag_36:\n        /* \"1/zombiefeeding.sol\":438:483  uint newDna = (myZombie.dna + _targetDna) / 2 */\n      swap1\n      pop\n        /* \"1/zombiefeeding.sol\":489:520  _createZombie(\"NoName\", newDna) */\n      tag_38\n      mload(0x40)\n      dup1\n      0x40\n      add\n      0x40\n      mstore\n      dup1\n      0x06\n      dup2\n      mstore\n      0x20\n      add\n      0x4e6f4e616d650000000000000000000000000000000000000000000000000000\n      dup2\n      mstore\n      pop\n        /* \"1/zombiefeeding.sol\":513:519  newDna */\n      dup3\n        /* \"1/zombiefeeding.sol\":489:502  _createZombie */\n      tag_39\n        /* \"1/zombiefeeding.sol\":489:520  _createZombie(\"NoName\", newDna) */\n      jump\t// in\n    tag_38:\n        /* \"1/zombiefeeding.sol\":287:525  {... */\n      pop\n      pop\n        /* \"1/zombiefeeding.sol\":222:525  function feedAndMultiply(uint _zombieId, uint _targetDna) public {... */\n      pop\n      pop\n      jump\t// out\n        /* \"1/zombiefactory.sol\":367:390  Zombie[] public zombies */\n    tag_14:\n      0x02\n      dup2\n      dup2\n      sload\n      dup2\n      lt\n      tag_40\n      jumpi\n      0x00\n      dup1\n      revert\n    tag_40:\n      swap1\n      0x00\n      mstore\n      keccak256(0x00, 0x20)\n      swap1\n      0x02\n      mul\n      add\n      0x00\n      swap2\n      pop\n      swap1\n      pop\n      dup1\n      0x00\n      add\n      dup1\n      sload\n      tag_42\n      swap1\n      tag_43\n      jump\t// in\n    tag_42:\n      dup1\n      0x1f\n      add\n      0x20\n      dup1\n      swap2\n      div\n      mul\n      0x20\n      add\n      mload(0x40)\n      swap1\n      dup2\n      add\n      0x40\n      mstore\n      dup1\n      swap3\n      swap2\n      swap1\n      dup2\n      dup2\n      mstore\n      0x20\n      add\n      dup3\n      dup1\n      sload\n      tag_44\n      swap1\n      tag_43\n      jump\t// in\n    tag_44:\n      dup1\n      iszero\n      tag_45\n      jumpi\n      dup1\n      0x1f\n      lt\n      tag_46\n      jumpi\n      0x0100\n      dup1\n      dup4\n      sload\n      div\n      mul\n      dup4\n      mstore\n      swap2\n      0x20\n      add\n      swap2\n      jump(tag_45)\n    tag_46:\n      dup3\n      add\n      swap2\n      swap1\n      0x00\n      mstore\n      keccak256(0x00, 0x20)\n      swap1\n    tag_47:\n      dup2\n      sload\n      dup2\n      mstore\n      swap1\n      0x01\n      add\n      swap1\n      0x20\n      add\n      dup1\n      dup4\n      gt\n      tag_47\n      jumpi\n      dup3\n      swap1\n      sub\n      0x1f\n      and\n      dup3\n      add\n      swap2\n    tag_45:\n      pop\n      pop\n      pop\n      pop\n      pop\n      swap1\n      dup1\n      0x01\n      add\n      sload\n      swap1\n      pop\n      dup3\n      jump\t// out\n        /* \"1/zombiefactory.sol\":397:443  mapping (uint => address) public zombieToOwner */\n    tag_19:\n      mstore(0x20, 0x03)\n      dup1\n      0x00\n      mstore\n      keccak256(0x00, 0x40)\n      0x00\n      swap2\n      pop\n      sload\n      swap1\n      0x0100\n      exp\n      swap1\n      div\n      0xffffffffffffffffffffffffffffffffffffffff\n      and\n      dup2\n      jump\t// out\n        /* \"1/zombiefactory.sol\":999:1203  function createRandomZombie(string memory _name) public {... */\n    tag_25:\n        /* \"1/zombiefactory.sol\":1105:1106  0 */\n      0x00\n        /* \"1/zombiefactory.sol\":1073:1089  ownerZombieCount */\n      0x04\n        /* \"1/zombiefactory.sol\":1073:1101  ownerZombieCount[msg.sender] */\n      0x00\n        /* \"1/zombiefactory.sol\":1090:1100  msg.sender */\n      caller\n        /* \"1/zombiefactory.sol\":1073:1101  ownerZombieCount[msg.sender] */\n      0xffffffffffffffffffffffffffffffffffffffff\n      and\n      0xffffffffffffffffffffffffffffffffffffffff\n      and\n      dup2\n      mstore\n      0x20\n      add\n      swap1\n      dup2\n      mstore\n      0x20\n      add\n      0x00\n      keccak256\n      sload\n        /* \"1/zombiefactory.sol\":1073:1106  ownerZombieCount[msg.sender] == 0 */\n      eq\n        /* \"1/zombiefactory.sol\":1065:1107  require(ownerZombieCount[msg.sender] == 0) */\n      tag_49\n      jumpi\n      0x00\n      dup1\n      revert\n    tag_49:\n        /* \"1/zombiefactory.sol\":1117:1129  uint randDna */\n      0x00\n        /* \"1/zombiefactory.sol\":1132:1157  _generateRandomDna(_name) */\n      tag_50\n        /* \"1/zombiefactory.sol\":1151:1156  _name */\n      dup3\n        /* \"1/zombiefactory.sol\":1132:1150  _generateRandomDna */\n      tag_51\n        /* \"1/zombiefactory.sol\":1132:1157  _generateRandomDna(_name) */\n      jump\t// in\n    tag_50:\n        /* \"1/zombiefactory.sol\":1117:1157  uint randDna = _generateRandomDna(_name) */\n      swap1\n      pop\n        /* \"1/zombiefactory.sol\":1167:1196  _createZombie(_name, randDna) */\n      tag_52\n        /* \"1/zombiefactory.sol\":1181:1186  _name */\n      dup3\n        /* \"1/zombiefactory.sol\":1188:1195  randDna */\n      dup3\n        /* \"1/zombiefactory.sol\":1167:1180  _createZombie */\n      tag_39\n        /* \"1/zombiefactory.sol\":1167:1196  _createZombie(_name, randDna) */\n      jump\t// in\n    tag_52:\n        /* \"1/zombiefactory.sol\":1055:1203  {... */\n      pop\n        /* \"1/zombiefactory.sol\":999:1203  function createRandomZombie(string memory _name) public {... */\n      pop\n      jump\t// out\n        /* \"1/zombiefactory.sol\":536:809  function _createZombie(string memory _name, uint _dna) internal  {... */\n    tag_39:\n        /* \"1/zombiefactory.sol\":611:618  zombies */\n      0x02\n        /* \"1/zombiefactory.sol\":624:643  Zombie(_name, _dna) */\n      mload(0x40)\n      dup1\n      0x40\n      add\n      0x40\n      mstore\n      dup1\n        /* \"1/zombiefactory.sol\":631:636  _name */\n      dup5\n        /* \"1/zombiefactory.sol\":624:643  Zombie(_name, _dna) */\n      dup2\n      mstore\n      0x20\n      add\n        /* \"1/zombiefactory.sol\":638:642  _dna */\n      dup4\n        /* \"1/zombiefactory.sol\":624:643  Zombie(_name, _dna) */\n      dup2\n      mstore\n      pop\n        /* \"1/zombiefactory.sol\":611:644  zombies.push(Zombie(_name, _dna)) */\n      swap1\n      dup1\n      0x01\n      dup2\n      sload\n      add\n      dup1\n      dup3\n      sstore\n      dup1\n      swap2\n      pop\n      pop\n      0x01\n      swap1\n      sub\n      swap1\n      0x00\n      mstore\n      keccak256(0x00, 0x20)\n      swap1\n      0x02\n      mul\n      add\n      0x00\n      swap1\n      swap2\n      swap1\n      swap2\n      swap1\n      swap2\n      pop\n      0x00\n      dup3\n      add\n      mload\n      dup2\n      0x00\n      add\n      swap1\n      dup2\n      tag_55\n      swap2\n      swap1\n      tag_56\n      jump\t// in\n    tag_55:\n      pop\n      0x20\n      dup3\n      add\n      mload\n      dup2\n      0x01\n      add\n      sstore\n      pop\n      pop\n        /* \"1/zombiefactory.sol\":654:661  uint id */\n      0x00\n        /* \"1/zombiefactory.sol\":680:681  1 */\n      0x01\n        /* \"1/zombiefactory.sol\":664:671  zombies */\n      0x02\n        /* \"1/zombiefactory.sol\":664:678  zombies.length */\n      dup1\n      sload\n      swap1\n      pop\n        /* \"1/zombiefactory.sol\":664:681  zombies.length -1 */\n      tag_57\n      swap2\n      swap1\n      tag_58\n      jump\t// in\n    tag_57:\n        /* \"1/zombiefactory.sol\":654:681  uint id = zombies.length -1 */\n      swap1\n      pop\n        /* \"1/zombiefactory.sol\":711:721  msg.sender */\n      caller\n        /* \"1/zombiefactory.sol\":691:704  zombieToOwner */\n      0x03\n        /* \"1/zombiefactory.sol\":691:708  zombieToOwner[id] */\n      0x00\n        /* \"1/zombiefactory.sol\":705:707  id */\n      dup4\n        /* \"1/zombiefactory.sol\":691:708  zombieToOwner[id] */\n      dup2\n      mstore\n      0x20\n      add\n      swap1\n      dup2\n      mstore\n      0x20\n      add\n      0x00\n      keccak256\n      0x00\n        /* \"1/zombiefactory.sol\":691:721  zombieToOwner[id] = msg.sender */\n      0x0100\n      exp\n      dup2\n      sload\n      dup2\n      0xffffffffffffffffffffffffffffffffffffffff\n      mul\n      not\n      and\n      swap1\n      dup4\n      0xffffffffffffffffffffffffffffffffffffffff\n      and\n      mul\n      or\n      swap1\n      sstore\n      pop\n        /* \"1/zombiefactory.sol\":731:747  ownerZombieCount */\n      0x04\n        /* \"1/zombiefactory.sol\":731:759  ownerZombieCount[msg.sender] */\n      0x00\n        /* \"1/zombiefactory.sol\":748:758  msg.sender */\n      caller\n        /* \"1/zombiefactory.sol\":731:759  ownerZombieCount[msg.sender] */\n      0xffffffffffffffffffffffffffffffffffffffff\n      and\n      0xffffffffffffffffffffffffffffffffffffffff\n      and\n      dup2\n      mstore\n      0x20\n      add\n      swap1\n      dup2\n      mstore\n      0x20\n      add\n      0x00\n      keccak256\n      0x00\n        /* \"1/zombiefactory.sol\":731:761  ownerZombieCount[msg.sender]++ */\n      dup2\n      sload\n      dup1\n      swap3\n      swap2\n      swap1\n      tag_59\n      swap1\n      tag_60\n      jump\t// in\n    tag_59:\n      swap2\n      swap1\n      pop\n      sstore\n      pop\n        /* \"1/zombiefactory.sol\":776:802  NewZombie(id, _name, _dna) */\n      0x88f026aacbbecc90c18411df4b1185fd8d9be2470f1962f192bf84a27d0704b7\n        /* \"1/zombiefactory.sol\":786:788  id */\n      dup2\n        /* \"1/zombiefactory.sol\":790:795  _name */\n      dup5\n        /* \"1/zombiefactory.sol\":797:801  _dna */\n      dup5\n        /* \"1/zombiefactory.sol\":776:802  NewZombie(id, _name, _dna) */\n      mload(0x40)\n      tag_61\n      swap4\n      swap3\n      swap2\n      swap1\n      tag_62\n      jump\t// in\n    tag_61:\n      mload(0x40)\n      dup1\n      swap2\n      sub\n      swap1\n      log1\n        /* \"1/zombiefactory.sol\":601:809  {... */\n      pop\n        /* \"1/zombiefactory.sol\":536:809  function _createZombie(string memory _name, uint _dna) internal  {... */\n      pop\n      pop\n      jump\t// out\n        /* \"1/zombiefactory.sol\":815:993  function _generateRandomDna(string memory _str) private view returns (uint) {... */\n    tag_51:\n        /* \"1/zombiefactory.sol\":885:889  uint */\n      0x00\n        /* \"1/zombiefactory.sol\":901:910  uint rand */\n      dup1\n        /* \"1/zombiefactory.sol\":945:949  _str */\n      dup3\n        /* \"1/zombiefactory.sol\":928:950  abi.encodePacked(_str) */\n      add(0x20, mload(0x40))\n      tag_64\n      swap2\n      swap1\n      tag_65\n      jump\t// in\n    tag_64:\n      mload(0x40)\n      0x20\n      dup2\n      dup4\n      sub\n      sub\n      dup2\n      mstore\n      swap1\n      0x40\n      mstore\n        /* \"1/zombiefactory.sol\":918:951  keccak256(abi.encodePacked(_str)) */\n      dup1\n      mload\n      swap1\n      0x20\n      add\n      keccak256\n        /* \"1/zombiefactory.sol\":913:952  uint(keccak256(abi.encodePacked(_str))) */\n      0x00\n      shr\n        /* \"1/zombiefactory.sol\":901:952  uint rand = uint(keccak256(abi.encodePacked(_str))) */\n      swap1\n      pop\n        /* \"1/zombiefactory.sol\":976:986  dnaModulus */\n      sload(0x01)\n        /* \"1/zombiefactory.sol\":969:973  rand */\n      dup2\n        /* \"1/zombiefactory.sol\":969:986  rand % dnaModulus */\n      tag_66\n      swap2\n      swap1\n      tag_33\n      jump\t// in\n    tag_66:\n        /* \"1/zombiefactory.sol\":962:986  return rand % dnaModulus */\n      swap2\n      pop\n      pop\n        /* \"1/zombiefactory.sol\":815:993  function _generateRandomDna(string memory _str) private view returns (uint) {... */\n      swap2\n      swap1\n      pop\n      jump\t// out\n        /* \"#utility.yul\":7:82   */\n    tag_67:\n        /* \"#utility.yul\":40:46   */\n      0x00\n        /* \"#utility.yul\":73:75   */\n      0x40\n        /* \"#utility.yul\":67:76   */\n      mload\n        /* \"#utility.yul\":57:76   */\n      swap1\n      pop\n        /* \"#utility.yul\":7:82   */\n      swap1\n      jump\t// out\n        /* \"#utility.yul\":88:205   */\n    tag_68:\n        /* \"#utility.yul\":197:198   */\n      0x00\n        /* \"#utility.yul\":194:195   */\n      dup1\n        /* \"#utility.yul\":187:199   */\n      revert\n        /* \"#utility.yul\":211:328   */\n    tag_69:\n        /* \"#utility.yul\":320:321   */\n      0x00\n        /* \"#utility.yul\":317:318   */\n      dup1\n        /* \"#utility.yul\":310:322   */\n      revert\n        /* \"#utility.yul\":334:411   */\n    tag_70:\n        /* \"#utility.yul\":371:378   */\n      0x00\n        /* \"#utility.yul\":400:405   */\n      dup2\n        /* \"#utility.yul\":389:405   */\n      swap1\n      pop\n        /* \"#utility.yul\":334:411   */\n      swap2\n      swap1\n      pop\n      jump\t// out\n        /* \"#utility.yul\":417:539   */\n    tag_71:\n        /* \"#utility.yul\":490:514   */\n      tag_117\n        /* \"#utility.yul\":508:513   */\n      dup2\n        /* \"#utility.yul\":490:514   */\n      tag_70\n      jump\t// in\n    tag_117:\n        /* \"#utility.yul\":483:488   */\n      dup2\n        /* \"#utility.yul\":480:515   */\n      eq\n        /* \"#utility.yul\":470:533   */\n      tag_118\n      jumpi\n        /* \"#utility.yul\":529:530   */\n      0x00\n        /* \"#utility.yul\":526:527   */\n      dup1\n        /* \"#utility.yul\":519:531   */\n      revert\n        /* \"#utility.yul\":470:533   */\n    tag_118:\n        /* \"#utility.yul\":417:539   */\n      pop\n      jump\t// out\n        /* \"#utility.yul\":545:684   */\n    tag_72:\n        /* \"#utility.yul\":591:596   */\n      0x00\n        /* \"#utility.yul\":629:635   */\n      dup2\n        /* \"#utility.yul\":616:636   */\n      calldataload\n        /* \"#utility.yul\":607:636   */\n      swap1\n      pop\n        /* \"#utility.yul\":645:678   */\n      tag_120\n        /* \"#utility.yul\":672:677   */\n      dup2\n        /* \"#utility.yul\":645:678   */\n      tag_71\n      jump\t// in\n    tag_120:\n        /* \"#utility.yul\":545:684   */\n      swap3\n      swap2\n      pop\n      pop\n      jump\t// out\n        /* \"#utility.yul\":690:1164   */\n    tag_9:\n        /* \"#utility.yul\":758:764   */\n      0x00\n        /* \"#utility.yul\":766:772   */\n      dup1\n        /* \"#utility.yul\":815:817   */\n      0x40\n        /* \"#utility.yul\":803:812   */\n      dup4\n        /* \"#utility.yul\":794:801   */\n      dup6\n        /* \"#utility.yul\":790:813   */\n      sub\n        /* \"#utility.yul\":786:818   */\n      slt\n        /* \"#utility.yul\":783:902   */\n      iszero\n      tag_122\n      jumpi\n        /* \"#utility.yul\":821:900   */\n      tag_123\n      tag_68\n      jump\t// in\n    tag_123:\n        /* \"#utility.yul\":783:902   */\n    tag_122:\n        /* \"#utility.yul\":941:942   */\n      0x00\n        /* \"#utility.yul\":966:1019   */\n      tag_124\n        /* \"#utility.yul\":1011:1018   */\n      dup6\n        /* \"#utility.yul\":1002:1008   */\n      dup3\n        /* \"#utility.yul\":991:1000   */\n      dup7\n        /* \"#utility.yul\":987:1009   */\n      add\n        /* \"#utility.yul\":966:1019   */\n      tag_72\n      jump\t// in\n    tag_124:\n        /* \"#utility.yul\":956:1019   */\n      swap3\n      pop\n        /* \"#utility.yul\":912:1029   */\n      pop\n        /* \"#utility.yul\":1068:1070   */\n      0x20\n        /* \"#utility.yul\":1094:1147   */\n      tag_125\n        /* \"#utility.yul\":1139:1146   */\n      dup6\n        /* \"#utility.yul\":1130:1136   */\n      dup3\n        /* \"#utility.yul\":1119:1128   */\n      dup7\n        /* \"#utility.yul\":1115:1137   */\n      add\n        /* \"#utility.yul\":1094:1147   */\n      tag_72\n      jump\t// in\n    tag_125:\n        /* \"#utility.yul\":1084:1147   */\n      swap2\n      pop\n        /* \"#utility.yul\":1039:1157   */\n      pop\n        /* \"#utility.yul\":690:1164   */\n      swap3\n      pop\n      swap3\n      swap1\n      pop\n      jump\t// out\n        /* \"#utility.yul\":1170:1499   */\n    tag_13:\n        /* \"#utility.yul\":1229:1235   */\n      0x00\n        /* \"#utility.yul\":1278:1280   */\n      0x20\n        /* \"#utility.yul\":1266:1275   */\n      dup3\n        /* \"#utility.yul\":1257:1264   */\n      dup5\n        /* \"#utility.yul\":1253:1276   */\n      sub\n        /* \"#utility.yul\":1249:1281   */\n      slt\n        /* \"#utility.yul\":1246:1365   */\n      iszero\n      tag_127\n      jumpi\n        /* \"#utility.yul\":1284:1363   */\n      tag_128\n      tag_68\n      jump\t// in\n    tag_128:\n        /* \"#utility.yul\":1246:1365   */\n    tag_127:\n        /* \"#utility.yul\":1404:1405   */\n      0x00\n        /* \"#utility.yul\":1429:1482   */\n      tag_129\n        /* \"#utility.yul\":1474:1481   */\n      dup5\n        /* \"#utility.yul\":1465:1471   */\n      dup3\n        /* \"#utility.yul\":1454:1463   */\n      dup6\n        /* \"#utility.yul\":1450:1472   */\n      add\n        /* \"#utility.yul\":1429:1482   */\n      tag_72\n      jump\t// in\n    tag_129:\n        /* \"#utility.yul\":1419:1482   */\n      swap2\n      pop\n        /* \"#utility.yul\":1375:1492   */\n      pop\n        /* \"#utility.yul\":1170:1499   */\n      swap3\n      swap2\n      pop\n      pop\n      jump\t// out\n        /* \"#utility.yul\":1505:1604   */\n    tag_73:\n        /* \"#utility.yul\":1557:1563   */\n      0x00\n        /* \"#utility.yul\":1591:1596   */\n      dup2\n        /* \"#utility.yul\":1585:1597   */\n      mload\n        /* \"#utility.yul\":1575:1597   */\n      swap1\n      pop\n        /* \"#utility.yul\":1505:1604   */\n      swap2\n      swap1\n      pop\n      jump\t// out\n        /* \"#utility.yul\":1610:1779   */\n    tag_74:\n        /* \"#utility.yul\":1694:1705   */\n      0x00\n        /* \"#utility.yul\":1728:1734   */\n      dup3\n        /* \"#utility.yul\":1723:1726   */\n      dup3\n        /* \"#utility.yul\":1716:1735   */\n      mstore\n        /* \"#utility.yul\":1768:1772   */\n      0x20\n        /* \"#utility.yul\":1763:1766   */\n      dup3\n        /* \"#utility.yul\":1759:1773   */\n      add\n        /* \"#utility.yul\":1744:1773   */\n      swap1\n      pop\n        /* \"#utility.yul\":1610:1779   */\n      swap3\n      swap2\n      pop\n      pop\n      jump\t// out\n        /* \"#utility.yul\":1785:2031   */\n    tag_75:\n        /* \"#utility.yul\":1866:1867   */\n      0x00\n        /* \"#utility.yul\":1876:1989   */\n    tag_133:\n        /* \"#utility.yul\":1890:1896   */\n      dup4\n        /* \"#utility.yul\":1887:1888   */\n      dup2\n        /* \"#utility.yul\":1884:1897   */\n      lt\n        /* \"#utility.yul\":1876:1989   */\n      iszero\n      tag_135\n      jumpi\n        /* \"#utility.yul\":1975:1976   */\n      dup1\n        /* \"#utility.yul\":1970:1973   */\n      dup3\n        /* \"#utility.yul\":1966:1977   */\n      add\n        /* \"#utility.yul\":1960:1978   */\n      mload\n        /* \"#utility.yul\":1956:1957   */\n      dup2\n        /* \"#utility.yul\":1951:1954   */\n      dup5\n        /* \"#utility.yul\":1947:1958   */\n      add\n        /* \"#utility.yul\":1940:1979   */\n      mstore\n        /* \"#utility.yul\":1912:1914   */\n      0x20\n        /* \"#utility.yul\":1909:1910   */\n      dup2\n        /* \"#utility.yul\":1905:1915   */\n      add\n        /* \"#utility.yul\":1900:1915   */\n      swap1\n      pop\n        /* \"#utility.yul\":1876:1989   */\n      jump(tag_133)\n    tag_135:\n        /* \"#utility.yul\":2023:2024   */\n      0x00\n        /* \"#utility.yul\":2014:2020   */\n      dup5\n        /* \"#utility.yul\":2009:2012   */\n      dup5\n        /* \"#utility.yul\":2005:2021   */\n      add\n        /* \"#utility.yul\":1998:2025   */\n      mstore\n        /* \"#utility.yul\":1847:2031   */\n      pop\n        /* \"#utility.yul\":1785:2031   */\n      pop\n      pop\n      pop\n      jump\t// out\n        /* \"#utility.yul\":2037:2139   */\n    tag_76:\n        /* \"#utility.yul\":2078:2084   */\n      0x00\n        /* \"#utility.yul\":2129:2131   */\n      0x1f\n        /* \"#utility.yul\":2125:2132   */\n      not\n        /* \"#utility.yul\":2120:2122   */\n      0x1f\n        /* \"#utility.yul\":2113:2118   */\n      dup4\n        /* \"#utility.yul\":2109:2123   */\n      add\n        /* \"#utility.yul\":2105:2133   */\n      and\n        /* \"#utility.yul\":2095:2133   */\n      swap1\n      pop\n        /* \"#utility.yul\":2037:2139   */\n      swap2\n      swap1\n      pop\n      jump\t// out\n        /* \"#utility.yul\":2145:2522   */\n    tag_77:\n        /* \"#utility.yul\":2233:2236   */\n      0x00\n        /* \"#utility.yul\":2261:2300   */\n      tag_138\n        /* \"#utility.yul\":2294:2299   */\n      dup3\n        /* \"#utility.yul\":2261:2300   */\n      tag_73\n      jump\t// in\n    tag_138:\n        /* \"#utility.yul\":2316:2387   */\n      tag_139\n        /* \"#utility.yul\":2380:2386   */\n      dup2\n        /* \"#utility.yul\":2375:2378   */\n      dup6\n        /* \"#utility.yul\":2316:2387   */\n      tag_74\n      jump\t// in\n    tag_139:\n        /* \"#utility.yul\":2309:2387   */\n      swap4\n      pop\n        /* \"#utility.yul\":2396:2461   */\n      tag_140\n        /* \"#utility.yul\":2454:2460   */\n      dup2\n        /* \"#utility.yul\":2449:2452   */\n      dup6\n        /* \"#utility.yul\":2442:2446   */\n      0x20\n        /* \"#utility.yul\":2435:2440   */\n      dup7\n        /* \"#utility.yul\":2431:2447   */\n      add\n        /* \"#utility.yul\":2396:2461   */\n      tag_75\n      jump\t// in\n    tag_140:\n        /* \"#utility.yul\":2486:2515   */\n      tag_141\n        /* \"#utility.yul\":2508:2514   */\n      dup2\n        /* \"#utility.yul\":2486:2515   */\n      tag_76\n      jump\t// in\n    tag_141:\n        /* \"#utility.yul\":2481:2484   */\n      dup5\n        /* \"#utility.yul\":2477:2516   */\n      add\n        /* \"#utility.yul\":2470:2516   */\n      swap2\n      pop\n        /* \"#utility.yul\":2237:2522   */\n      pop\n        /* \"#utility.yul\":2145:2522   */\n      swap3\n      swap2\n      pop\n      pop\n      jump\t// out\n        /* \"#utility.yul\":2528:2646   */\n    tag_78:\n        /* \"#utility.yul\":2615:2639   */\n      tag_143\n        /* \"#utility.yul\":2633:2638   */\n      dup2\n        /* \"#utility.yul\":2615:2639   */\n      tag_70\n      jump\t// in\n    tag_143:\n        /* \"#utility.yul\":2610:2613   */\n      dup3\n        /* \"#utility.yul\":2603:2640   */\n      mstore\n        /* \"#utility.yul\":2528:2646   */\n      pop\n      pop\n      jump\t// out\n        /* \"#utility.yul\":2652:3075   */\n    tag_16:\n        /* \"#utility.yul\":2793:2797   */\n      0x00\n        /* \"#utility.yul\":2831:2833   */\n      0x40\n        /* \"#utility.yul\":2820:2829   */\n      dup3\n        /* \"#utility.yul\":2816:2834   */\n      add\n        /* \"#utility.yul\":2808:2834   */\n      swap1\n      pop\n        /* \"#utility.yul\":2880:2889   */\n      dup2\n        /* \"#utility.yul\":2874:2878   */\n      dup2\n        /* \"#utility.yul\":2870:2890   */\n      sub\n        /* \"#utility.yul\":2866:2867   */\n      0x00\n        /* \"#utility.yul\":2855:2864   */\n      dup4\n        /* \"#utility.yul\":2851:2868   */\n      add\n        /* \"#utility.yul\":2844:2891   */\n      mstore\n        /* \"#utility.yul\":2908:2986   */\n      tag_145\n        /* \"#utility.yul\":2981:2985   */\n      dup2\n        /* \"#utility.yul\":2972:2978   */\n      dup6\n        /* \"#utility.yul\":2908:2986   */\n      tag_77\n      jump\t// in\n    tag_145:\n        /* \"#utility.yul\":2900:2986   */\n      swap1\n      pop\n        /* \"#utility.yul\":2996:3068   */\n      tag_146\n        /* \"#utility.yul\":3064:3066   */\n      0x20\n        /* \"#utility.yul\":3053:3062   */\n      dup4\n        /* \"#utility.yul\":3049:3067   */\n      add\n        /* \"#utility.yul\":3040:3046   */\n      dup5\n        /* \"#utility.yul\":2996:3068   */\n      tag_78\n      jump\t// in\n    tag_146:\n        /* \"#utility.yul\":2652:3075   */\n      swap4\n      swap3\n      pop\n      pop\n      pop\n      jump\t// out\n        /* \"#utility.yul\":3081:3207   */\n    tag_79:\n        /* \"#utility.yul\":3118:3125   */\n      0x00\n        /* \"#utility.yul\":3158:3200   */\n      0xffffffffffffffffffffffffffffffffffffffff\n        /* \"#utility.yul\":3151:3156   */\n      dup3\n        /* \"#utility.yul\":3147:3201   */\n      and\n        /* \"#utility.yul\":3136:3201   */\n      swap1\n      pop\n        /* \"#utility.yul\":3081:3207   */\n      swap2\n      swap1\n      pop\n      jump\t// out\n        /* \"#utility.yul\":3213:3309   */\n    tag_80:\n        /* \"#utility.yul\":3250:3257   */\n      0x00\n        /* \"#utility.yul\":3279:3303   */\n      tag_149\n        /* \"#utility.yul\":3297:3302   */\n      dup3\n        /* \"#utility.yul\":3279:3303   */\n      tag_79\n      jump\t// in\n    tag_149:\n        /* \"#utility.yul\":3268:3303   */\n      swap1\n      pop\n        /* \"#utility.yul\":3213:3309   */\n      swap2\n      swap1\n      pop\n      jump\t// out\n        /* \"#utility.yul\":3315:3433   */\n    tag_81:\n        /* \"#utility.yul\":3402:3426   */\n      tag_151\n        /* \"#utility.yul\":3420:3425   */\n      dup2\n        /* \"#utility.yul\":3402:3426   */\n      tag_80\n      jump\t// in\n    tag_151:\n        /* \"#utility.yul\":3397:3400   */\n      dup3\n        /* \"#utility.yul\":3390:3427   */\n      mstore\n        /* \"#utility.yul\":3315:3433   */\n      pop\n      pop\n      jump\t// out\n        /* \"#utility.yul\":3439:3661   */\n    tag_21:\n        /* \"#utility.yul\":3532:3536   */\n      0x00\n        /* \"#utility.yul\":3570:3572   */\n      0x20\n        /* \"#utility.yul\":3559:3568   */\n      dup3\n        /* \"#utility.yul\":3555:3573   */\n      add\n        /* \"#utility.yul\":3547:3573   */\n      swap1\n      pop\n        /* \"#utility.yul\":3583:3654   */\n      tag_153\n        /* \"#utility.yul\":3651:3652   */\n      0x00\n        /* \"#utility.yul\":3640:3649   */\n      dup4\n        /* \"#utility.yul\":3636:3653   */\n      add\n        /* \"#utility.yul\":3627:3633   */\n      dup5\n        /* \"#utility.yul\":3583:3654   */\n      tag_81\n      jump\t// in\n    tag_153:\n        /* \"#utility.yul\":3439:3661   */\n      swap3\n      swap2\n      pop\n      pop\n      jump\t// out\n        /* \"#utility.yul\":3667:3784   */\n    tag_82:\n        /* \"#utility.yul\":3776:3777   */\n      0x00\n        /* \"#utility.yul\":3773:3774   */\n      dup1\n        /* \"#utility.yul\":3766:3778   */\n      revert\n        /* \"#utility.yul\":3790:3907   */\n    tag_83:\n        /* \"#utility.yul\":3899:3900   */\n      0x00\n        /* \"#utility.yul\":3896:3897   */\n      dup1\n        /* \"#utility.yul\":3889:3901   */\n      revert\n        /* \"#utility.yul\":3913:4093   */\n    tag_84:\n        /* \"#utility.yul\":3961:4038   */\n      0x4e487b7100000000000000000000000000000000000000000000000000000000\n        /* \"#utility.yul\":3958:3959   */\n      0x00\n        /* \"#utility.yul\":3951:4039   */\n      mstore\n        /* \"#utility.yul\":4058:4062   */\n      0x41\n        /* \"#utility.yul\":4055:4056   */\n      0x04\n        /* \"#utility.yul\":4048:4063   */\n      mstore\n        /* \"#utility.yul\":4082:4086   */\n      0x24\n        /* \"#utility.yul\":4079:4080   */\n      0x00\n        /* \"#utility.yul\":4072:4087   */\n      revert\n        /* \"#utility.yul\":4099:4380   */\n    tag_85:\n        /* \"#utility.yul\":4182:4209   */\n      tag_158\n        /* \"#utility.yul\":4204:4208   */\n      dup3\n        /* \"#utility.yul\":4182:4209   */\n      tag_76\n      jump\t// in\n    tag_158:\n        /* \"#utility.yul\":4174:4180   */\n      dup2\n        /* \"#utility.yul\":4170:4210   */\n      add\n        /* \"#utility.yul\":4312:4318   */\n      dup2\n        /* \"#utility.yul\":4300:4310   */\n      dup2\n        /* \"#utility.yul\":4297:4319   */\n      lt\n        /* \"#utility.yul\":4276:4294   */\n      0xffffffffffffffff\n        /* \"#utility.yul\":4264:4274   */\n      dup3\n        /* \"#utility.yul\":4261:4295   */\n      gt\n        /* \"#utility.yul\":4258:4320   */\n      or\n        /* \"#utility.yul\":4255:4343   */\n      iszero\n      tag_159\n      jumpi\n        /* \"#utility.yul\":4323:4341   */\n      tag_160\n      tag_84\n      jump\t// in\n    tag_160:\n        /* \"#utility.yul\":4255:4343   */\n    tag_159:\n        /* \"#utility.yul\":4363:4373   */\n      dup1\n        /* \"#utility.yul\":4359:4361   */\n      0x40\n        /* \"#utility.yul\":4352:4374   */\n      mstore\n        /* \"#utility.yul\":4142:4380   */\n      pop\n        /* \"#utility.yul\":4099:4380   */\n      pop\n      pop\n      jump\t// out\n        /* \"#utility.yul\":4386:4515   */\n    tag_86:\n        /* \"#utility.yul\":4420:4426   */\n      0x00\n        /* \"#utility.yul\":4447:4467   */\n      tag_162\n      tag_67\n      jump\t// in\n    tag_162:\n        /* \"#utility.yul\":4437:4467   */\n      swap1\n      pop\n        /* \"#utility.yul\":4476:4509   */\n      tag_163\n        /* \"#utility.yul\":4504:4508   */\n      dup3\n        /* \"#utility.yul\":4496:4502   */\n      dup3\n        /* \"#utility.yul\":4476:4509   */\n      tag_85\n      jump\t// in\n    tag_163:\n        /* \"#utility.yul\":4386:4515   */\n      swap2\n      swap1\n      pop\n      jump\t// out\n        /* \"#utility.yul\":4521:4829   */\n    tag_87:\n        /* \"#utility.yul\":4583:4587   */\n      0x00\n        /* \"#utility.yul\":4673:4691   */\n      0xffffffffffffffff\n        /* \"#utility.yul\":4665:4671   */\n      dup3\n        /* \"#utility.yul\":4662:4692   */\n      gt\n        /* \"#utility.yul\":4659:4715   */\n      iszero\n      tag_165\n      jumpi\n        /* \"#utility.yul\":4695:4713   */\n      tag_166\n      tag_84\n      jump\t// in\n    tag_166:\n        /* \"#utility.yul\":4659:4715   */\n    tag_165:\n        /* \"#utility.yul\":4733:4762   */\n      tag_167\n        /* \"#utility.yul\":4755:4761   */\n      dup3\n        /* \"#utility.yul\":4733:4762   */\n      tag_76\n      jump\t// in\n    tag_167:\n        /* \"#utility.yul\":4725:4762   */\n      swap1\n      pop\n        /* \"#utility.yul\":4817:4821   */\n      0x20\n        /* \"#utility.yul\":4811:4815   */\n      dup2\n        /* \"#utility.yul\":4807:4822   */\n      add\n        /* \"#utility.yul\":4799:4822   */\n      swap1\n      pop\n        /* \"#utility.yul\":4521:4829   */\n      swap2\n      swap1\n      pop\n      jump\t// out\n        /* \"#utility.yul\":4835:4981   */\n    tag_88:\n        /* \"#utility.yul\":4932:4938   */\n      dup3\n        /* \"#utility.yul\":4927:4930   */\n      dup2\n        /* \"#utility.yul\":4922:4925   */\n      dup4\n        /* \"#utility.yul\":4909:4939   */\n      calldatacopy\n        /* \"#utility.yul\":4973:4974   */\n      0x00\n        /* \"#utility.yul\":4964:4970   */\n      dup4\n        /* \"#utility.yul\":4959:4962   */\n      dup4\n        /* \"#utility.yul\":4955:4971   */\n      add\n        /* \"#utility.yul\":4948:4975   */\n      mstore\n        /* \"#utility.yul\":4835:4981   */\n      pop\n      pop\n      pop\n      jump\t// out\n        /* \"#utility.yul\":4987:5412   */\n    tag_89:\n        /* \"#utility.yul\":5065:5070   */\n      0x00\n        /* \"#utility.yul\":5090:5156   */\n      tag_170\n        /* \"#utility.yul\":5106:5155   */\n      tag_171\n        /* \"#utility.yul\":5148:5154   */\n      dup5\n        /* \"#utility.yul\":5106:5155   */\n      tag_87\n      jump\t// in\n    tag_171:\n        /* \"#utility.yul\":5090:5156   */\n      tag_86\n      jump\t// in\n    tag_170:\n        /* \"#utility.yul\":5081:5156   */\n      swap1\n      pop\n        /* \"#utility.yul\":5179:5185   */\n      dup3\n        /* \"#utility.yul\":5172:5177   */\n      dup2\n        /* \"#utility.yul\":5165:5186   */\n      mstore\n        /* \"#utility.yul\":5217:5221   */\n      0x20\n        /* \"#utility.yul\":5210:5215   */\n      dup2\n        /* \"#utility.yul\":5206:5222   */\n      add\n        /* \"#utility.yul\":5255:5258   */\n      dup5\n        /* \"#utility.yul\":5246:5252   */\n      dup5\n        /* \"#utility.yul\":5241:5244   */\n      dup5\n        /* \"#utility.yul\":5237:5253   */\n      add\n        /* \"#utility.yul\":5234:5259   */\n      gt\n        /* \"#utility.yul\":5231:5343   */\n      iszero\n      tag_172\n      jumpi\n        /* \"#utility.yul\":5262:5341   */\n      tag_173\n      tag_83\n      jump\t// in\n    tag_173:\n        /* \"#utility.yul\":5231:5343   */\n    tag_172:\n        /* \"#utility.yul\":5352:5406   */\n      tag_174\n        /* \"#utility.yul\":5399:5405   */\n      dup5\n        /* \"#utility.yul\":5394:5397   */\n      dup3\n        /* \"#utility.yul\":5389:5392   */\n      dup6\n        /* \"#utility.yul\":5352:5406   */\n      tag_88\n      jump\t// in\n    tag_174:\n        /* \"#utility.yul\":5071:5412   */\n      pop\n        /* \"#utility.yul\":4987:5412   */\n      swap4\n      swap3\n      pop\n      pop\n      pop\n      jump\t// out\n        /* \"#utility.yul\":5432:5772   */\n    tag_90:\n        /* \"#utility.yul\":5488:5493   */\n      0x00\n        /* \"#utility.yul\":5537:5540   */\n      dup3\n        /* \"#utility.yul\":5530:5534   */\n      0x1f\n        /* \"#utility.yul\":5522:5528   */\n      dup4\n        /* \"#utility.yul\":5518:5535   */\n      add\n        /* \"#utility.yul\":5514:5541   */\n      slt\n        /* \"#utility.yul\":5504:5626   */\n      tag_176\n      jumpi\n        /* \"#utility.yul\":5545:5624   */\n      tag_177\n      tag_82\n      jump\t// in\n    tag_177:\n        /* \"#utility.yul\":5504:5626   */\n    tag_176:\n        /* \"#utility.yul\":5662:5668   */\n      dup2\n        /* \"#utility.yul\":5649:5669   */\n      calldataload\n        /* \"#utility.yul\":5687:5766   */\n      tag_178\n        /* \"#utility.yul\":5762:5765   */\n      dup5\n        /* \"#utility.yul\":5754:5760   */\n      dup3\n        /* \"#utility.yul\":5747:5751   */\n      0x20\n        /* \"#utility.yul\":5739:5745   */\n      dup7\n        /* \"#utility.yul\":5735:5752   */\n      add\n        /* \"#utility.yul\":5687:5766   */\n      tag_89\n      jump\t// in\n    tag_178:\n        /* \"#utility.yul\":5678:5766   */\n      swap2\n      pop\n        /* \"#utility.yul\":5494:5772   */\n      pop\n        /* \"#utility.yul\":5432:5772   */\n      swap3\n      swap2\n      pop\n      pop\n      jump\t// out\n        /* \"#utility.yul\":5778:6287   */\n    tag_24:\n        /* \"#utility.yul\":5847:5853   */\n      0x00\n        /* \"#utility.yul\":5896:5898   */\n      0x20\n        /* \"#utility.yul\":5884:5893   */\n      dup3\n        /* \"#utility.yul\":5875:5882   */\n      dup5\n        /* \"#utility.yul\":5871:5894   */\n      sub\n        /* \"#utility.yul\":5867:5899   */\n      slt\n        /* \"#utility.yul\":5864:5983   */\n      iszero\n      tag_180\n      jumpi\n        /* \"#utility.yul\":5902:5981   */\n      tag_181\n      tag_68\n      jump\t// in\n    tag_181:\n        /* \"#utility.yul\":5864:5983   */\n    tag_180:\n        /* \"#utility.yul\":6050:6051   */\n      0x00\n        /* \"#utility.yul\":6039:6048   */\n      dup3\n        /* \"#utility.yul\":6035:6052   */\n      add\n        /* \"#utility.yul\":6022:6053   */\n      calldataload\n        /* \"#utility.yul\":6080:6098   */\n      0xffffffffffffffff\n        /* \"#utility.yul\":6072:6078   */\n      dup2\n        /* \"#utility.yul\":6069:6099   */\n      gt\n        /* \"#utility.yul\":6066:6183   */\n      iszero\n      tag_182\n      jumpi\n        /* \"#utility.yul\":6102:6181   */\n      tag_183\n      tag_69\n      jump\t// in\n    tag_183:\n        /* \"#utility.yul\":6066:6183   */\n    tag_182:\n        /* \"#utility.yul\":6207:6270   */\n      tag_184\n        /* \"#utility.yul\":6262:6269   */\n      dup5\n        /* \"#utility.yul\":6253:6259   */\n      dup3\n        /* \"#utility.yul\":6242:6251   */\n      dup6\n        /* \"#utility.yul\":6238:6260   */\n      add\n        /* \"#utility.yul\":6207:6270   */\n      tag_90\n      jump\t// in\n    tag_184:\n        /* \"#utility.yul\":6197:6270   */\n      swap2\n      pop\n        /* \"#utility.yul\":5993:6280   */\n      pop\n        /* \"#utility.yul\":5778:6287   */\n      swap3\n      swap2\n      pop\n      pop\n      jump\t// out\n        /* \"#utility.yul\":6293:6473   */\n    tag_30:\n        /* \"#utility.yul\":6341:6418   */\n      0x4e487b7100000000000000000000000000000000000000000000000000000000\n        /* \"#utility.yul\":6338:6339   */\n      0x00\n        /* \"#utility.yul\":6331:6419   */\n      mstore\n        /* \"#utility.yul\":6438:6442   */\n      0x32\n        /* \"#utility.yul\":6435:6436   */\n      0x04\n        /* \"#utility.yul\":6428:6443   */\n      mstore\n        /* \"#utility.yul\":6462:6466   */\n      0x24\n        /* \"#utility.yul\":6459:6460   */\n      0x00\n        /* \"#utility.yul\":6452:6467   */\n      revert\n        /* \"#utility.yul\":6479:6659   */\n    tag_91:\n        /* \"#utility.yul\":6527:6604   */\n      0x4e487b7100000000000000000000000000000000000000000000000000000000\n        /* \"#utility.yul\":6524:6525   */\n      0x00\n        /* \"#utility.yul\":6517:6605   */\n      mstore\n        /* \"#utility.yul\":6624:6628   */\n      0x12\n        /* \"#utility.yul\":6621:6622   */\n      0x04\n        /* \"#utility.yul\":6614:6629   */\n      mstore\n        /* \"#utility.yul\":6648:6652   */\n      0x24\n        /* \"#utility.yul\":6645:6646   */\n      0x00\n        /* \"#utility.yul\":6638:6653   */\n      revert\n        /* \"#utility.yul\":6665:6841   */\n    tag_33:\n        /* \"#utility.yul\":6697:6698   */\n      0x00\n        /* \"#utility.yul\":6714:6734   */\n      tag_188\n        /* \"#utility.yul\":6732:6733   */\n      dup3\n        /* \"#utility.yul\":6714:6734   */\n      tag_70\n      jump\t// in\n    tag_188:\n        /* \"#utility.yul\":6709:6734   */\n      swap2\n      pop\n        /* \"#utility.yul\":6748:6768   */\n      tag_189\n        /* \"#utility.yul\":6766:6767   */\n      dup4\n        /* \"#utility.yul\":6748:6768   */\n      tag_70\n      jump\t// in\n    tag_189:\n        /* \"#utility.yul\":6743:6768   */\n      swap3\n      pop\n        /* \"#utility.yul\":6787:6788   */\n      dup3\n        /* \"#utility.yul\":6777:6812   */\n      tag_190\n      jumpi\n        /* \"#utility.yul\":6792:6810   */\n      tag_191\n      tag_91\n      jump\t// in\n    tag_191:\n        /* \"#utility.yul\":6777:6812   */\n    tag_190:\n        /* \"#utility.yul\":6833:6834   */\n      dup3\n        /* \"#utility.yul\":6830:6831   */\n      dup3\n        /* \"#utility.yul\":6826:6835   */\n      mod\n        /* \"#utility.yul\":6821:6835   */\n      swap1\n      pop\n        /* \"#utility.yul\":6665:6841   */\n      swap3\n      swap2\n      pop\n      pop\n      jump\t// out\n        /* \"#utility.yul\":6847:7027   */\n    tag_92:\n        /* \"#utility.yul\":6895:6972   */\n      0x4e487b7100000000000000000000000000000000000000000000000000000000\n        /* \"#utility.yul\":6892:6893   */\n      0x00\n        /* \"#utility.yul\":6885:6973   */\n      mstore\n        /* \"#utility.yul\":6992:6996   */\n      0x11\n        /* \"#utility.yul\":6989:6990   */\n      0x04\n        /* \"#utility.yul\":6982:6997   */\n      mstore\n        /* \"#utility.yul\":7016:7020   */\n      0x24\n        /* \"#utility.yul\":7013:7014   */\n      0x00\n        /* \"#utility.yul\":7006:7021   */\n      revert\n        /* \"#utility.yul\":7033:7224   */\n    tag_35:\n        /* \"#utility.yul\":7073:7076   */\n      0x00\n        /* \"#utility.yul\":7092:7112   */\n      tag_194\n        /* \"#utility.yul\":7110:7111   */\n      dup3\n        /* \"#utility.yul\":7092:7112   */\n      tag_70\n      jump\t// in\n    tag_194:\n        /* \"#utility.yul\":7087:7112   */\n      swap2\n      pop\n        /* \"#utility.yul\":7126:7146   */\n      tag_195\n        /* \"#utility.yul\":7144:7145   */\n      dup4\n        /* \"#utility.yul\":7126:7146   */\n      tag_70\n      jump\t// in\n    tag_195:\n        /* \"#utility.yul\":7121:7146   */\n      swap3\n      pop\n        /* \"#utility.yul\":7169:7170   */\n      dup3\n        /* \"#utility.yul\":7166:7167   */\n      dup3\n        /* \"#utility.yul\":7162:7171   */\n      add\n        /* \"#utility.yul\":7155:7171   */\n      swap1\n      pop\n        /* \"#utility.yul\":7190:7193   */\n      dup1\n        /* \"#utility.yul\":7187:7188   */\n      dup3\n        /* \"#utility.yul\":7184:7194   */\n      gt\n        /* \"#utility.yul\":7181:7217   */\n      iszero\n      tag_196\n      jumpi\n        /* \"#utility.yul\":7197:7215   */\n      tag_197\n      tag_92\n      jump\t// in\n    tag_197:\n        /* \"#utility.yul\":7181:7217   */\n    tag_196:\n        /* \"#utility.yul\":7033:7224   */\n      swap3\n      swap2\n      pop\n      pop\n      jump\t// out\n        /* \"#utility.yul\":7230:7415   */\n    tag_37:\n        /* \"#utility.yul\":7270:7271   */\n      0x00\n        /* \"#utility.yul\":7287:7307   */\n      tag_199\n        /* \"#utility.yul\":7305:7306   */\n      dup3\n        /* \"#utility.yul\":7287:7307   */\n      tag_70\n      jump\t// in\n    tag_199:\n        /* \"#utility.yul\":7282:7307   */\n      swap2\n      pop\n        /* \"#utility.yul\":7321:7341   */\n      tag_200\n        /* \"#utility.yul\":7339:7340   */\n      dup4\n        /* \"#utility.yul\":7321:7341   */\n      tag_70\n      jump\t// in\n    tag_200:\n        /* \"#utility.yul\":7316:7341   */\n      swap3\n      pop\n        /* \"#utility.yul\":7360:7361   */\n      dup3\n        /* \"#utility.yul\":7350:7385   */\n      tag_201\n      jumpi\n        /* \"#utility.yul\":7365:7383   */\n      tag_202\n      tag_91\n      jump\t// in\n    tag_202:\n        /* \"#utility.yul\":7350:7385   */\n    tag_201:\n        /* \"#utility.yul\":7407:7408   */\n      dup3\n        /* \"#utility.yul\":7404:7405   */\n      dup3\n        /* \"#utility.yul\":7400:7409   */\n      div\n        /* \"#utility.yul\":7395:7409   */\n      swap1\n      pop\n        /* \"#utility.yul\":7230:7415   */\n      swap3\n      swap2\n      pop\n      pop\n      jump\t// out\n        /* \"#utility.yul\":7421:7601   */\n    tag_93:\n        /* \"#utility.yul\":7469:7546   */\n      0x4e487b7100000000000000000000000000000000000000000000000000000000\n        /* \"#utility.yul\":7466:7467   */\n      0x00\n        /* \"#utility.yul\":7459:7547   */\n      mstore\n        /* \"#utility.yul\":7566:7570   */\n      0x22\n        /* \"#utility.yul\":7563:7564   */\n      0x04\n        /* \"#utility.yul\":7556:7571   */\n      mstore\n        /* \"#utility.yul\":7590:7594   */\n      0x24\n        /* \"#utility.yul\":7587:7588   */\n      0x00\n        /* \"#utility.yul\":7580:7595   */\n      revert\n        /* \"#utility.yul\":7607:7927   */\n    tag_43:\n        /* \"#utility.yul\":7651:7657   */\n      0x00\n        /* \"#utility.yul\":7688:7689   */\n      0x02\n        /* \"#utility.yul\":7682:7686   */\n      dup3\n        /* \"#utility.yul\":7678:7690   */\n      div\n        /* \"#utility.yul\":7668:7690   */\n      swap1\n      pop\n        /* \"#utility.yul\":7735:7736   */\n      0x01\n        /* \"#utility.yul\":7729:7733   */\n      dup3\n        /* \"#utility.yul\":7725:7737   */\n      and\n        /* \"#utility.yul\":7756:7774   */\n      dup1\n        /* \"#utility.yul\":7746:7827   */\n      tag_205\n      jumpi\n        /* \"#utility.yul\":7812:7816   */\n      0x7f\n        /* \"#utility.yul\":7804:7810   */\n      dup3\n        /* \"#utility.yul\":7800:7817   */\n      and\n        /* \"#utility.yul\":7790:7817   */\n      swap2\n      pop\n        /* \"#utility.yul\":7746:7827   */\n    tag_205:\n        /* \"#utility.yul\":7874:7876   */\n      0x20\n        /* \"#utility.yul\":7866:7872   */\n      dup3\n        /* \"#utility.yul\":7863:7877   */\n      lt\n        /* \"#utility.yul\":7843:7861   */\n      dup2\n        /* \"#utility.yul\":7840:7878   */\n      sub\n        /* \"#utility.yul\":7837:7921   */\n      tag_206\n      jumpi\n        /* \"#utility.yul\":7893:7911   */\n      tag_207\n      tag_93\n      jump\t// in\n    tag_207:\n        /* \"#utility.yul\":7837:7921   */\n    tag_206:\n        /* \"#utility.yul\":7658:7927   */\n      pop\n        /* \"#utility.yul\":7607:7927   */\n      swap2\n      swap1\n      pop\n      jump\t// out\n        /* \"#utility.yul\":7933:8074   */\n    tag_94:\n        /* \"#utility.yul\":7982:7986   */\n      0x00\n        /* \"#utility.yul\":8005:8008   */\n      dup2\n        /* \"#utility.yul\":7997:8008   */\n      swap1\n      pop\n        /* \"#utility.yul\":8028:8031   */\n      dup2\n        /* \"#utility.yul\":8025:8026   */\n      0x00\n        /* \"#utility.yul\":8018:8032   */\n      mstore\n        /* \"#utility.yul\":8062:8066   */\n      0x20\n        /* \"#utility.yul\":8059:8060   */\n      0x00\n        /* \"#utility.yul\":8049:8067   */\n      keccak256\n        /* \"#utility.yul\":8041:8067   */\n      swap1\n      pop\n        /* \"#utility.yul\":7933:8074   */\n      swap2\n      swap1\n      pop\n      jump\t// out\n        /* \"#utility.yul\":8080:8173   */\n    tag_95:\n        /* \"#utility.yul\":8117:8123   */\n      0x00\n        /* \"#utility.yul\":8164:8166   */\n      0x20\n        /* \"#utility.yul\":8159:8161   */\n      0x1f\n        /* \"#utility.yul\":8152:8157   */\n      dup4\n        /* \"#utility.yul\":8148:8162   */\n      add\n        /* \"#utility.yul\":8144:8167   */\n      div\n        /* \"#utility.yul\":8134:8167   */\n      swap1\n      pop\n        /* \"#utility.yul\":8080:8173   */\n      swap2\n      swap1\n      pop\n      jump\t// out\n        /* \"#utility.yul\":8179:8286   */\n    tag_96:\n        /* \"#utility.yul\":8223:8231   */\n      0x00\n        /* \"#utility.yul\":8273:8278   */\n      dup3\n        /* \"#utility.yul\":8267:8271   */\n      dup3\n        /* \"#utility.yul\":8263:8279   */\n      shl\n        /* \"#utility.yul\":8242:8279   */\n      swap1\n      pop\n        /* \"#utility.yul\":8179:8286   */\n      swap3\n      swap2\n      pop\n      pop\n      jump\t// out\n        /* \"#utility.yul\":8292:8685   */\n    tag_97:\n        /* \"#utility.yul\":8361:8367   */\n      0x00\n        /* \"#utility.yul\":8411:8412   */\n      0x08\n        /* \"#utility.yul\":8399:8409   */\n      dup4\n        /* \"#utility.yul\":8395:8413   */\n      mul\n        /* \"#utility.yul\":8434:8531   */\n      tag_212\n        /* \"#utility.yul\":8464:8530   */\n      0xffffffffffffffffffffffffffffffffffffffffffffffffffffffffffffffff\n        /* \"#utility.yul\":8453:8462   */\n      dup3\n        /* \"#utility.yul\":8434:8531   */\n      tag_96\n      jump\t// in\n    tag_212:\n        /* \"#utility.yul\":8552:8591   */\n      tag_213\n        /* \"#utility.yul\":8582:8590   */\n      dup7\n        /* \"#utility.yul\":8571:8580   */\n      dup4\n        /* \"#utility.yul\":8552:8591   */\n      tag_96\n      jump\t// in\n    tag_213:\n        /* \"#utility.yul\":8540:8591   */\n      swap6\n      pop\n        /* \"#utility.yul\":8624:8628   */\n      dup1\n        /* \"#utility.yul\":8620:8629   */\n      not\n        /* \"#utility.yul\":8613:8618   */\n      dup5\n        /* \"#utility.yul\":8609:8630   */\n      and\n        /* \"#utility.yul\":8600:8630   */\n      swap4\n      pop\n        /* \"#utility.yul\":8673:8677   */\n      dup1\n        /* \"#utility.yul\":8663:8671   */\n      dup7\n        /* \"#utility.yul\":8659:8678   */\n      and\n        /* \"#utility.yul\":8652:8657   */\n      dup5\n        /* \"#utility.yul\":8649:8679   */\n      or\n        /* \"#utility.yul\":8639:8679   */\n      swap3\n      pop\n        /* \"#utility.yul\":8368:8685   */\n      pop\n      pop\n        /* \"#utility.yul\":8292:8685   */\n      swap4\n      swap3\n      pop\n      pop\n      pop\n      jump\t// out\n        /* \"#utility.yul\":8691:8751   */\n    tag_98:\n        /* \"#utility.yul\":8719:8722   */\n      0x00\n        /* \"#utility.yul\":8740:8745   */\n      dup2\n        /* \"#utility.yul\":8733:8745   */\n      swap1\n      pop\n        /* \"#utility.yul\":8691:8751   */\n      swap2\n      swap1\n      pop\n      jump\t// out\n        /* \"#utility.yul\":8757:8899   */\n    tag_99:\n        /* \"#utility.yul\":8807:8816   */\n      0x00\n        /* \"#utility.yul\":8840:8893   */\n      tag_216\n        /* \"#utility.yul\":8858:8892   */\n      tag_217\n        /* \"#utility.yul\":8867:8891   */\n      tag_218\n        /* \"#utility.yul\":8885:8890   */\n      dup5\n        /* \"#utility.yul\":8867:8891   */\n      tag_70\n      jump\t// in\n    tag_218:\n        /* \"#utility.yul\":8858:8892   */\n      tag_98\n      jump\t// in\n    tag_217:\n        /* \"#utility.yul\":8840:8893   */\n      tag_70\n      jump\t// in\n    tag_216:\n        /* \"#utility.yul\":8827:8893   */\n      swap1\n      pop\n        /* \"#utility.yul\":8757:8899   */\n      swap2\n      swap1\n      pop\n      jump\t// out\n        /* \"#utility.yul\":8905:8980   */\n    tag_100:\n        /* \"#utility.yul\":8948:8951   */\n      0x00\n        /* \"#utility.yul\":8969:8974   */\n      dup2\n        /* \"#utility.yul\":8962:8974   */\n      swap1\n      pop\n        /* \"#utility.yul\":8905:8980   */\n      swap2\n      swap1\n      pop\n      jump\t// out\n        /* \"#utility.yul\":8986:9255   */\n    tag_101:\n        /* \"#utility.yul\":9096:9135   */\n      tag_221\n        /* \"#utility.yul\":9127:9134   */\n      dup4\n        /* \"#utility.yul\":9096:9135   */\n      tag_99\n      jump\t// in\n    tag_221:\n        /* \"#utility.yul\":9157:9248   */\n      tag_222\n        /* \"#utility.yul\":9206:9247   */\n      tag_223\n        /* \"#utility.yul\":9230:9246   */\n      dup3\n        /* \"#utility.yul\":9206:9247   */\n      tag_100\n      jump\t// in\n    tag_223:\n        /* \"#utility.yul\":9198:9204   */\n      dup5\n        /* \"#utility.yul\":9191:9195   */\n      dup5\n        /* \"#utility.yul\":9185:9196   */\n      sload\n        /* \"#utility.yul\":9157:9248   */\n      tag_97\n      jump\t// in\n    tag_222:\n        /* \"#utility.yul\":9151:9155   */\n      dup3\n        /* \"#utility.yul\":9144:9249   */\n      sstore\n        /* \"#utility.yul\":9062:9255   */\n      pop\n        /* \"#utility.yul\":8986:9255   */\n      pop\n      pop\n      pop\n      jump\t// out\n        /* \"#utility.yul\":9261:9334   */\n    tag_102:\n        /* \"#utility.yul\":9306:9309   */\n      0x00\n        /* \"#utility.yul\":9261:9334   */\n      swap1\n      jump\t// out\n        /* \"#utility.yul\":9340:9529   */\n    tag_103:\n        /* \"#utility.yul\":9417:9449   */\n      tag_226\n      tag_102\n      jump\t// in\n    tag_226:\n        /* \"#utility.yul\":9458:9523   */\n      tag_227\n        /* \"#utility.yul\":9516:9522   */\n      dup2\n        /* \"#utility.yul\":9508:9514   */\n      dup5\n        /* \"#utility.yul\":9502:9506   */\n      dup5\n        /* \"#utility.yul\":9458:9523   */\n      tag_101\n      jump\t// in\n    tag_227:\n        /* \"#utility.yul\":9393:9529   */\n      pop\n        /* \"#utility.yul\":9340:9529   */\n      pop\n      pop\n      jump\t// out\n        /* \"#utility.yul\":9535:9721   */\n    tag_104:\n        /* \"#utility.yul\":9595:9715   */\n    tag_229:\n        /* \"#utility.yul\":9612:9615   */\n      dup2\n        /* \"#utility.yul\":9605:9610   */\n      dup2\n        /* \"#utility.yul\":9602:9616   */\n      lt\n        /* \"#utility.yul\":9595:9715   */\n      iszero\n      tag_231\n      jumpi\n        /* \"#utility.yul\":9666:9705   */\n      tag_232\n        /* \"#utility.yul\":9703:9704   */\n      0x00\n        /* \"#utility.yul\":9696:9701   */\n      dup3\n        /* \"#utility.yul\":9666:9705   */\n      tag_103\n      jump\t// in\n    tag_232:\n        /* \"#utility.yul\":9639:9640   */\n      0x01\n        /* \"#utility.yul\":9632:9637   */\n      dup2\n        /* \"#utility.yul\":9628:9641   */\n      add\n        /* \"#utility.yul\":9619:9641   */\n      swap1\n      pop\n        /* \"#utility.yul\":9595:9715   */\n      jump(tag_229)\n    tag_231:\n        /* \"#utility.yul\":9535:9721   */\n      pop\n      pop\n      jump\t// out\n        /* \"#utility.yul\":9727:10270   */\n    tag_105:\n        /* \"#utility.yul\":9828:9830   */\n      0x1f\n        /* \"#utility.yul\":9823:9826   */\n      dup3\n        /* \"#utility.yul\":9820:9831   */\n      gt\n        /* \"#utility.yul\":9817:10263   */\n      iszero\n      tag_234\n      jumpi\n        /* \"#utility.yul\":9862:9900   */\n      tag_235\n        /* \"#utility.yul\":9894:9899   */\n      dup2\n        /* \"#utility.yul\":9862:9900   */\n      tag_94\n      jump\t// in\n    tag_235:\n        /* \"#utility.yul\":9946:9975   */\n      tag_236\n        /* \"#utility.yul\":9964:9974   */\n      dup5\n        /* \"#utility.yul\":9946:9975   */\n      tag_95\n      jump\t// in\n    tag_236:\n        /* \"#utility.yul\":9936:9944   */\n      dup2\n        /* \"#utility.yul\":9932:9976   */\n      add\n        /* \"#utility.yul\":10129:10131   */\n      0x20\n        /* \"#utility.yul\":10117:10127   */\n      dup6\n        /* \"#utility.yul\":10114:10132   */\n      lt\n        /* \"#utility.yul\":10111:10160   */\n      iszero\n      tag_237\n      jumpi\n        /* \"#utility.yul\":10150:10158   */\n      dup2\n        /* \"#utility.yul\":10135:10158   */\n      swap1\n      pop\n        /* \"#utility.yul\":10111:10160   */\n    tag_237:\n        /* \"#utility.yul\":10173:10253   */\n      tag_238\n        /* \"#utility.yul\":10229:10251   */\n      tag_239\n        /* \"#utility.yul\":10247:10250   */\n      dup6\n        /* \"#utility.yul\":10229:10251   */\n      tag_95\n      jump\t// in\n    tag_239:\n        /* \"#utility.yul\":10219:10227   */\n      dup4\n        /* \"#utility.yul\":10215:10252   */\n      add\n        /* \"#utility.yul\":10202:10213   */\n      dup3\n        /* \"#utility.yul\":10173:10253   */\n      tag_104\n      jump\t// in\n    tag_238:\n        /* \"#utility.yul\":9832:10263   */\n      pop\n      pop\n        /* \"#utility.yul\":9817:10263   */\n    tag_234:\n        /* \"#utility.yul\":9727:10270   */\n      pop\n      pop\n      pop\n      jump\t// out\n        /* \"#utility.yul\":10276:10393   */\n    tag_106:\n        /* \"#utility.yul\":10330:10338   */\n      0x00\n        /* \"#utility.yul\":10380:10385   */\n      dup3\n        /* \"#utility.yul\":10374:10378   */\n      dup3\n        /* \"#utility.yul\":10370:10386   */\n      shr\n        /* \"#utility.yul\":10349:10386   */\n      swap1\n      pop\n        /* \"#utility.yul\":10276:10393   */\n      swap3\n      swap2\n      pop\n      pop\n      jump\t// out\n        /* \"#utility.yul\":10399:10568   */\n    tag_107:\n        /* \"#utility.yul\":10443:10449   */\n      0x00\n        /* \"#utility.yul\":10476:10527   */\n      tag_242\n        /* \"#utility.yul\":10524:10525   */\n      0x00\n        /* \"#utility.yul\":10520:10526   */\n      not\n        /* \"#utility.yul\":10512:10517   */\n      dup5\n        /* \"#utility.yul\":10509:10510   */\n      0x08\n        /* \"#utility.yul\":10505:10518   */\n      mul\n        /* \"#utility.yul\":10476:10527   */\n      tag_106\n      jump\t// in\n    tag_242:\n        /* \"#utility.yul\":10472:10528   */\n      not\n        /* \"#utility.yul\":10557:10561   */\n      dup1\n        /* \"#utility.yul\":10551:10555   */\n      dup4\n        /* \"#utility.yul\":10547:10562   */\n      and\n        /* \"#utility.yul\":10537:10562   */\n      swap2\n      pop\n        /* \"#utility.yul\":10450:10568   */\n      pop\n        /* \"#utility.yul\":10399:10568   */\n      swap3\n      swap2\n      pop\n      pop\n      jump\t// out\n        /* \"#utility.yul\":10573:10868   */\n    tag_108:\n        /* \"#utility.yul\":10649:10653   */\n      0x00\n        /* \"#utility.yul\":10795:10824   */\n      tag_244\n        /* \"#utility.yul\":10820:10823   */\n      dup4\n        /* \"#utility.yul\":10814:10818   */\n      dup4\n        /* \"#utility.yul\":10795:10824   */\n      tag_107\n      jump\t// in\n    tag_244:\n        /* \"#utility.yul\":10787:10824   */\n      swap2\n      pop\n        /* \"#utility.yul\":10857:10860   */\n      dup3\n        /* \"#utility.yul\":10854:10855   */\n      0x02\n        /* \"#utility.yul\":10850:10861   */\n      mul\n        /* \"#utility.yul\":10844:10848   */\n      dup3\n        /* \"#utility.yul\":10841:10862   */\n      or\n        /* \"#utility.yul\":10833:10862   */\n      swap1\n      pop\n        /* \"#utility.yul\":10573:10868   */\n      swap3\n      swap2\n      pop\n      pop\n      jump\t// out\n        /* \"#utility.yul\":10873:12268   */\n    tag_56:\n        /* \"#utility.yul\":10990:11027   */\n      tag_246\n        /* \"#utility.yul\":11023:11026   */\n      dup3\n        /* \"#utility.yul\":10990:11027   */\n      tag_73\n      jump\t// in\n    tag_246:\n        /* \"#utility.yul\":11092:11110   */\n      0xffffffffffffffff\n        /* \"#utility.yul\":11084:11090   */\n      dup2\n        /* \"#utility.yul\":11081:11111   */\n      gt\n        /* \"#utility.yul\":11078:11134   */\n      iszero\n      tag_247\n      jumpi\n        /* \"#utility.yul\":11114:11132   */\n      tag_248\n      tag_84\n      jump\t// in\n    tag_248:\n        /* \"#utility.yul\":11078:11134   */\n    tag_247:\n        /* \"#utility.yul\":11158:11196   */\n      tag_249\n        /* \"#utility.yul\":11190:11194   */\n      dup3\n        /* \"#utility.yul\":11184:11195   */\n      sload\n        /* \"#utility.yul\":11158:11196   */\n      tag_43\n      jump\t// in\n    tag_249:\n        /* \"#utility.yul\":11243:11310   */\n      tag_250\n        /* \"#utility.yul\":11303:11309   */\n      dup3\n        /* \"#utility.yul\":11295:11301   */\n      dup3\n        /* \"#utility.yul\":11289:11293   */\n      dup6\n        /* \"#utility.yul\":11243:11310   */\n      tag_105\n      jump\t// in\n    tag_250:\n        /* \"#utility.yul\":11337:11338   */\n      0x00\n        /* \"#utility.yul\":11361:11365   */\n      0x20\n        /* \"#utility.yul\":11348:11365   */\n      swap1\n      pop\n        /* \"#utility.yul\":11393:11395   */\n      0x1f\n        /* \"#utility.yul\":11385:11391   */\n      dup4\n        /* \"#utility.yul\":11382:11396   */\n      gt\n        /* \"#utility.yul\":11410:11411   */\n      0x01\n        /* \"#utility.yul\":11405:12023   */\n      dup2\n      eq\n      tag_252\n      jumpi\n        /* \"#utility.yul\":12067:12068   */\n      0x00\n        /* \"#utility.yul\":12084:12090   */\n      dup5\n        /* \"#utility.yul\":12081:12158   */\n      iszero\n      tag_253\n      jumpi\n        /* \"#utility.yul\":12133:12142   */\n      dup3\n        /* \"#utility.yul\":12128:12131   */\n      dup8\n        /* \"#utility.yul\":12124:12143   */\n      add\n        /* \"#utility.yul\":12118:12144   */\n      mload\n        /* \"#utility.yul\":12109:12144   */\n      swap1\n      pop\n        /* \"#utility.yul\":12081:12158   */\n    tag_253:\n        /* \"#utility.yul\":12184:12251   */\n      tag_254\n        /* \"#utility.yul\":12244:12250   */\n      dup6\n        /* \"#utility.yul\":12237:12242   */\n      dup3\n        /* \"#utility.yul\":12184:12251   */\n      tag_108\n      jump\t// in\n    tag_254:\n        /* \"#utility.yul\":12178:12182   */\n      dup7\n        /* \"#utility.yul\":12171:12252   */\n      sstore\n        /* \"#utility.yul\":12040:12262   */\n      pop\n        /* \"#utility.yul\":11375:12262   */\n      jump(tag_251)\n        /* \"#utility.yul\":11405:12023   */\n    tag_252:\n        /* \"#utility.yul\":11457:11461   */\n      0x1f\n        /* \"#utility.yul\":11453:11462   */\n      not\n        /* \"#utility.yul\":11445:11451   */\n      dup5\n        /* \"#utility.yul\":11441:11463   */\n      and\n        /* \"#utility.yul\":11491:11528   */\n      tag_255\n        /* \"#utility.yul\":11523:11527   */\n      dup7\n        /* \"#utility.yul\":11491:11528   */\n      tag_94\n      jump\t// in\n    tag_255:\n        /* \"#utility.yul\":11550:11551   */\n      0x00\n        /* \"#utility.yul\":11564:11772   */\n    tag_256:\n        /* \"#utility.yul\":11578:11585   */\n      dup3\n        /* \"#utility.yul\":11575:11576   */\n      dup2\n        /* \"#utility.yul\":11572:11586   */\n      lt\n        /* \"#utility.yul\":11564:11772   */\n      iszero\n      tag_258\n      jumpi\n        /* \"#utility.yul\":11657:11666   */\n      dup5\n        /* \"#utility.yul\":11652:11655   */\n      dup10\n        /* \"#utility.yul\":11648:11667   */\n      add\n        /* \"#utility.yul\":11642:11668   */\n      mload\n        /* \"#utility.yul\":11634:11640   */\n      dup3\n        /* \"#utility.yul\":11627:11669   */\n      sstore\n        /* \"#utility.yul\":11708:11709   */\n      0x01\n        /* \"#utility.yul\":11700:11706   */\n      dup3\n        /* \"#utility.yul\":11696:11710   */\n      add\n        /* \"#utility.yul\":11686:11710   */\n      swap2\n      pop\n        /* \"#utility.yul\":11755:11757   */\n      0x20\n        /* \"#utility.yul\":11744:11753   */\n      dup6\n        /* \"#utility.yul\":11740:11758   */\n      add\n        /* \"#utility.yul\":11727:11758   */\n      swap5\n      pop\n        /* \"#utility.yul\":11601:11605   */\n      0x20\n        /* \"#utility.yul\":11598:11599   */\n      dup2\n        /* \"#utility.yul\":11594:11606   */\n      add\n        /* \"#utility.yul\":11589:11606   */\n      swap1\n      pop\n        /* \"#utility.yul\":11564:11772   */\n      jump(tag_256)\n    tag_258:\n        /* \"#utility.yul\":11800:11806   */\n      dup7\n        /* \"#utility.yul\":11791:11798   */\n      dup4\n        /* \"#utility.yul\":11788:11807   */\n      lt\n        /* \"#utility.yul\":11785:11964   */\n      iszero\n      tag_259\n      jumpi\n        /* \"#utility.yul\":11858:11867   */\n      dup5\n        /* \"#utility.yul\":11853:11856   */\n      dup10\n        /* \"#utility.yul\":11849:11868   */\n      add\n        /* \"#utility.yul\":11843:11869   */\n      mload\n        /* \"#utility.yul\":11901:11949   */\n      tag_260\n        /* \"#utility.yul\":11943:11947   */\n      0x1f\n        /* \"#utility.yul\":11935:11941   */\n      dup10\n        /* \"#utility.yul\":11931:11948   */\n      and\n        /* \"#utility.yul\":11920:11929   */\n      dup3\n        /* \"#utility.yul\":11901:11949   */\n      tag_107\n      jump\t// in\n    tag_260:\n        /* \"#utility.yul\":11893:11899   */\n      dup4\n        /* \"#utility.yul\":11886:11950   */\n      sstore\n        /* \"#utility.yul\":11808:11964   */\n      pop\n        /* \"#utility.yul\":11785:11964   */\n    tag_259:\n        /* \"#utility.yul\":12010:12011   */\n      0x01\n        /* \"#utility.yul\":12006:12007   */\n      0x02\n        /* \"#utility.yul\":11998:12004   */\n      dup9\n        /* \"#utility.yul\":11994:12008   */\n      mul\n        /* \"#utility.yul\":11990:12012   */\n      add\n        /* \"#utility.yul\":11984:11988   */\n      dup9\n        /* \"#utility.yul\":11977:12013   */\n      sstore\n        /* \"#utility.yul\":11412:12023   */\n      pop\n      pop\n      pop\n        /* \"#utility.yul\":11375:12262   */\n    tag_251:\n      pop\n        /* \"#utility.yul\":10965:12268   */\n      pop\n      pop\n      pop\n        /* \"#utility.yul\":10873:12268   */\n      pop\n      pop\n      jump\t// out\n        /* \"#utility.yul\":12274:12468   */\n    tag_58:\n        /* \"#utility.yul\":12314:12318   */\n      0x00\n        /* \"#utility.yul\":12334:12354   */\n      tag_262\n        /* \"#utility.yul\":12352:12353   */\n      dup3\n        /* \"#utility.yul\":12334:12354   */\n      tag_70\n      jump\t// in\n    tag_262:\n        /* \"#utility.yul\":12329:12354   */\n      swap2\n      pop\n        /* \"#utility.yul\":12368:12388   */\n      tag_263\n        /* \"#utility.yul\":12386:12387   */\n      dup4\n        /* \"#utility.yul\":12368:12388   */\n      tag_70\n      jump\t// in\n    tag_263:\n        /* \"#utility.yul\":12363:12388   */\n      swap3\n      pop\n        /* \"#utility.yul\":12412:12413   */\n      dup3\n        /* \"#utility.yul\":12409:12410   */\n      dup3\n        /* \"#utility.yul\":12405:12414   */\n      sub\n        /* \"#utility.yul\":12397:12414   */\n      swap1\n      pop\n        /* \"#utility.yul\":12436:12437   */\n      dup2\n        /* \"#utility.yul\":12430:12434   */\n      dup2\n        /* \"#utility.yul\":12427:12438   */\n      gt\n        /* \"#utility.yul\":12424:12461   */\n      iszero\n      tag_264\n      jumpi\n        /* \"#utility.yul\":12441:12459   */\n      tag_265\n      tag_92\n      jump\t// in\n    tag_265:\n        /* \"#utility.yul\":12424:12461   */\n    tag_264:\n        /* \"#utility.yul\":12274:12468   */\n      swap3\n      swap2\n      pop\n      pop\n      jump\t// out\n        /* \"#utility.yul\":12474:12707   */\n    tag_60:\n        /* \"#utility.yul\":12513:12516   */\n      0x00\n        /* \"#utility.yul\":12536:12560   */\n      tag_267\n        /* \"#utility.yul\":12554:12559   */\n      dup3\n        /* \"#utility.yul\":12536:12560   */\n      tag_70\n      jump\t// in\n    tag_267:\n        /* \"#utility.yul\":12527:12560   */\n      swap2\n      pop\n        /* \"#utility.yul\":12582:12648   */\n      0xffffffffffffffffffffffffffffffffffffffffffffffffffffffffffffffff\n        /* \"#utility.yul\":12575:12580   */\n      dup3\n        /* \"#utility.yul\":12572:12649   */\n      sub\n        /* \"#utility.yul\":12569:12672   */\n      tag_268\n      jumpi\n        /* \"#utility.yul\":12652:12670   */\n      tag_269\n      tag_92\n      jump\t// in\n    tag_269:\n        /* \"#utility.yul\":12569:12672   */\n    tag_268:\n        /* \"#utility.yul\":12699:12700   */\n      0x01\n        /* \"#utility.yul\":12692:12697   */\n      dup3\n        /* \"#utility.yul\":12688:12701   */\n      add\n        /* \"#utility.yul\":12681:12701   */\n      swap1\n      pop\n        /* \"#utility.yul\":12474:12707   */\n      swap2\n      swap1\n      pop\n      jump\t// out\n        /* \"#utility.yul\":12713:13246   */\n    tag_62:\n        /* \"#utility.yul\":12882:12886   */\n      0x00\n        /* \"#utility.yul\":12920:12922   */\n      0x60\n        /* \"#utility.yul\":12909:12918   */\n      dup3\n        /* \"#utility.yul\":12905:12923   */\n      add\n        /* \"#utility.yul\":12897:12923   */\n      swap1\n      pop\n        /* \"#utility.yul\":12933:13004   */\n      tag_271\n        /* \"#utility.yul\":13001:13002   */\n      0x00\n        /* \"#utility.yul\":12990:12999   */\n      dup4\n        /* \"#utility.yul\":12986:13003   */\n      add\n        /* \"#utility.yul\":12977:12983   */\n      dup7\n        /* \"#utility.yul\":12933:13004   */\n      tag_78\n      jump\t// in\n    tag_271:\n        /* \"#utility.yul\":13051:13060   */\n      dup2\n        /* \"#utility.yul\":13045:13049   */\n      dup2\n        /* \"#utility.yul\":13041:13061   */\n      sub\n        /* \"#utility.yul\":13036:13038   */\n      0x20\n        /* \"#utility.yul\":13025:13034   */\n      dup4\n        /* \"#utility.yul\":13021:13039   */\n      add\n        /* \"#utility.yul\":13014:13062   */\n      mstore\n        /* \"#utility.yul\":13079:13157   */\n      tag_272\n        /* \"#utility.yul\":13152:13156   */\n      dup2\n        /* \"#utility.yul\":13143:13149   */\n      dup6\n        /* \"#utility.yul\":13079:13157   */\n      tag_77\n      jump\t// in\n    tag_272:\n        /* \"#utility.yul\":13071:13157   */\n      swap1\n      pop\n        /* \"#utility.yul\":13167:13239   */\n      tag_273\n        /* \"#utility.yul\":13235:13237   */\n      0x40\n        /* \"#utility.yul\":13224:13233   */\n      dup4\n        /* \"#utility.yul\":13220:13238   */\n      add\n        /* \"#utility.yul\":13211:13217   */\n      dup5\n        /* \"#utility.yul\":13167:13239   */\n      tag_78\n      jump\t// in\n    tag_273:\n        /* \"#utility.yul\":12713:13246   */\n      swap5\n      swap4\n      pop\n      pop\n      pop\n      pop\n      jump\t// out\n        /* \"#utility.yul\":13252:13400   */\n    tag_109:\n        /* \"#utility.yul\":13354:13365   */\n      0x00\n        /* \"#utility.yul\":13391:13394   */\n      dup2\n        /* \"#utility.yul\":13376:13394   */\n      swap1\n      pop\n        /* \"#utility.yul\":13252:13400   */\n      swap3\n      swap2\n      pop\n      pop\n      jump\t// out\n        /* \"#utility.yul\":13406:13796   */\n    tag_110:\n        /* \"#utility.yul\":13512:13515   */\n      0x00\n        /* \"#utility.yul\":13540:13579   */\n      tag_276\n        /* \"#utility.yul\":13573:13578   */\n      dup3\n        /* \"#utility.yul\":13540:13579   */\n      tag_73\n      jump\t// in\n    tag_276:\n        /* \"#utility.yul\":13595:13684   */\n      tag_277\n        /* \"#utility.yul\":13677:13683   */\n      dup2\n        /* \"#utility.yul\":13672:13675   */\n      dup6\n        /* \"#utility.yul\":13595:13684   */\n      tag_109\n      jump\t// in\n    tag_277:\n        /* \"#utility.yul\":13588:13684   */\n      swap4\n      pop\n        /* \"#utility.yul\":13693:13758   */\n      tag_278\n        /* \"#utility.yul\":13751:13757   */\n      dup2\n        /* \"#utility.yul\":13746:13749   */\n      dup6\n        /* \"#utility.yul\":13739:13743   */\n      0x20\n        /* \"#utility.yul\":13732:13737   */\n      dup7\n        /* \"#utility.yul\":13728:13744   */\n      add\n        /* \"#utility.yul\":13693:13758   */\n      tag_75\n      jump\t// in\n    tag_278:\n        /* \"#utility.yul\":13783:13789   */\n      dup1\n        /* \"#utility.yul\":13778:13781   */\n      dup5\n        /* \"#utility.yul\":13774:13790   */\n      add\n        /* \"#utility.yul\":13767:13790   */\n      swap2\n      pop\n        /* \"#utility.yul\":13516:13796   */\n      pop\n        /* \"#utility.yul\":13406:13796   */\n      swap3\n      swap2\n      pop\n      pop\n      jump\t// out\n        /* \"#utility.yul\":13802:14077   */\n    tag_65:\n        /* \"#utility.yul\":13934:13937   */\n      0x00\n        /* \"#utility.yul\":13956:14051   */\n      tag_280\n        /* \"#utility.yul\":14047:14050   */\n      dup3\n        /* \"#utility.yul\":14038:14044   */\n      dup5\n        /* \"#utility.yul\":13956:14051   */\n      tag_110\n      jump\t// in\n    tag_280:\n        /* \"#utility.yul\":13949:14051   */\n      swap2\n      pop\n        /* \"#utility.yul\":14068:14071   */\n      dup2\n        /* \"#utility.yul\":14061:14071   */\n      swap1\n      pop\n        /* \"#utility.yul\":13802:14077   */\n      swap3\n      swap2\n      pop\n      pop\n      jump\t// out\n\n    auxdata: 0xa2646970667358221220b14b4de34448a2cbf34cdc683b245dfd0a494fa3d39ebbaa55cb5b5a7719357664736f6c63430008120033\n}\n",
				"bytecode": {
					"linkReferences": {},
					"object": "60806040526010600055600054600a6200001a9190620001be565b6001553480156200002a57600080fd5b506200020f565b7f4e487b7100000000000000000000000000000000000000000000000000000000600052601160045260246000fd5b60008160011c9050919050565b6000808291508390505b6001851115620000bf5780860481111562000097576200009662000031565b5b6001851615620000a75780820291505b8081029050620000b78562000060565b945062000077565b94509492505050565b600082620000da5760019050620001ad565b81620000ea5760009050620001ad565b81600181146200010357600281146200010e5762000144565b6001915050620001ad565b60ff84111562000123576200012262000031565b5b8360020a9150848211156200013d576200013c62000031565b5b50620001ad565b5060208310610133831016604e8410600b84101617156200017e5782820a90508381111562000178576200017762000031565b5b620001ad565b6200018d84848460016200006d565b92509050818404811115620001a757620001a662000031565b5b81810290505b9392505050565b6000819050919050565b6000620001cb82620001b4565b9150620001d883620001b4565b9250620002077fffffffffffffffffffffffffffffffffffffffffffffffffffffffffffffffff8484620000c8565b905092915050565b610d8e806200021f6000396000f3fe608060405234801561001057600080fd5b506004361061004c5760003560e01c80630dedffb8146100515780632052465e1461006d578063528b7b8f1461009e5780637bff0a01146100ce575b600080fd5b61006b60048036038101906100669190610534565b6100ea565b005b61008760048036038101906100829190610574565b6101f0565b604051610095929190610640565b60405180910390f35b6100b860048036038101906100b39190610574565b6102ac565b6040516100c591906106b1565b60405180910390f35b6100e860048036038101906100e39190610801565b6102df565b005b6003600083815260200190815260200160002060009054906101000a900473ffffffffffffffffffffffffffffffffffffffff1673ffffffffffffffffffffffffffffffffffffffff163373ffffffffffffffffffffffffffffffffffffffff161461015557600080fd5b60006002838154811061016b5761016a61084a565b5b906000526020600020906002020190506001548261018991906108a8565b91506000600283836001015461019f9190610908565b6101a9919061093c565b90506101ea6040518060400160405280600681526020017f4e6f4e616d65000000000000000000000000000000000000000000000000000081525082610346565b50505050565b6002818154811061020057600080fd5b90600052602060002090600202016000915090508060000180546102239061099c565b80601f016020809104026020016040519081016040528092919081815260200182805461024f9061099c565b801561029c5780601f106102715761010080835404028352916020019161029c565b820191906000526020600020905b81548152906001019060200180831161027f57829003601f168201915b5050505050908060010154905082565b60036020528060005260406000206000915054906101000a900473ffffffffffffffffffffffffffffffffffffffff1681565b6000600460003373ffffffffffffffffffffffffffffffffffffffff1673ffffffffffffffffffffffffffffffffffffffff168152602001908152602001600020541461032b57600080fd5b6000610336826104a5565b90506103428282610346565b5050565b60026040518060400160405280848152602001838152509080600181540180825580915050600190039060005260206000209060020201600090919091909150600082015181600001908161039b9190610b79565b50602082015181600101555050600060016002805490506103bc9190610c4b565b9050336003600083815260200190815260200160002060006101000a81548173ffffffffffffffffffffffffffffffffffffffff021916908373ffffffffffffffffffffffffffffffffffffffff160217905550600460003373ffffffffffffffffffffffffffffffffffffffff1673ffffffffffffffffffffffffffffffffffffffff168152602001908152602001600020600081548092919061046090610c7f565b91905055507f88f026aacbbecc90c18411df4b1185fd8d9be2470f1962f192bf84a27d0704b781848460405161049893929190610cc7565b60405180910390a1505050565b600080826040516020016104b99190610d41565b6040516020818303038152906040528051906020012060001c9050600154816104e291906108a8565b915050919050565b6000604051905090565b600080fd5b600080fd5b6000819050919050565b610511816104fe565b811461051c57600080fd5b50565b60008135905061052e81610508565b92915050565b6000806040838503121561054b5761054a6104f4565b5b60006105598582860161051f565b925050602061056a8582860161051f565b9150509250929050565b60006020828403121561058a576105896104f4565b5b60006105988482850161051f565b91505092915050565b600081519050919050565b600082825260208201905092915050565b60005b838110156105db5780820151818401526020810190506105c0565b60008484015250505050565b6000601f19601f8301169050919050565b6000610603826105a1565b61060d81856105ac565b935061061d8185602086016105bd565b610626816105e7565b840191505092915050565b61063a816104fe565b82525050565b6000604082019050818103600083015261065a81856105f8565b90506106696020830184610631565b9392505050565b600073ffffffffffffffffffffffffffffffffffffffff82169050919050565b600061069b82610670565b9050919050565b6106ab81610690565b82525050565b60006020820190506106c660008301846106a2565b92915050565b600080fd5b600080fd5b7f4e487b7100000000000000000000000000000000000000000000000000000000600052604160045260246000fd5b61070e826105e7565b810181811067ffffffffffffffff8211171561072d5761072c6106d6565b5b80604052505050565b60006107406104ea565b905061074c8282610705565b919050565b600067ffffffffffffffff82111561076c5761076b6106d6565b5b610775826105e7565b9050602081019050919050565b82818337600083830152505050565b60006107a461079f84610751565b610736565b9050828152602081018484840111156107c0576107bf6106d1565b5b6107cb848285610782565b509392505050565b600082601f8301126107e8576107e76106cc565b5b81356107f8848260208601610791565b91505092915050565b600060208284031215610817576108166104f4565b5b600082013567ffffffffffffffff811115610835576108346104f9565b5b610841848285016107d3565b91505092915050565b7f4e487b7100000000000000000000000000000000000000000000000000000000600052603260045260246000fd5b7f4e487b7100000000000000000000000000000000000000000000000000000000600052601260045260246000fd5b60006108b3826104fe565b91506108be836104fe565b9250826108ce576108cd610879565b5b828206905092915050565b7f4e487b7100000000000000000000000000000000000000000000000000000000600052601160045260246000fd5b6000610913826104fe565b915061091e836104fe565b9250828201905080821115610936576109356108d9565b5b92915050565b6000610947826104fe565b9150610952836104fe565b92508261096257610961610879565b5b828204905092915050565b7f4e487b7100000000000000000000000000000000000000000000000000000000600052602260045260246000fd5b600060028204905060018216806109b457607f821691505b6020821081036109c7576109c661096d565b5b50919050565b60008190508160005260206000209050919050565b60006020601f8301049050919050565b600082821b905092915050565b600060088302610a2f7fffffffffffffffffffffffffffffffffffffffffffffffffffffffffffffffff826109f2565b610a3986836109f2565b95508019841693508086168417925050509392505050565b6000819050919050565b6000610a76610a71610a6c846104fe565b610a51565b6104fe565b9050919050565b6000819050919050565b610a9083610a5b565b610aa4610a9c82610a7d565b8484546109ff565b825550505050565b600090565b610ab9610aac565b610ac4818484610a87565b505050565b5b81811015610ae857610add600082610ab1565b600181019050610aca565b5050565b601f821115610b2d57610afe816109cd565b610b07846109e2565b81016020851015610b16578190505b610b2a610b22856109e2565b830182610ac9565b50505b505050565b600082821c905092915050565b6000610b5060001984600802610b32565b1980831691505092915050565b6000610b698383610b3f565b9150826002028217905092915050565b610b82826105a1565b67ffffffffffffffff811115610b9b57610b9a6106d6565b5b610ba5825461099c565b610bb0828285610aec565b600060209050601f831160018114610be35760008415610bd1578287015190505b610bdb8582610b5d565b865550610c43565b601f198416610bf1866109cd565b60005b82811015610c1957848901518255600182019150602085019450602081019050610bf4565b86831015610c365784890151610c32601f891682610b3f565b8355505b6001600288020188555050505b505050505050565b6000610c56826104fe565b9150610c61836104fe565b9250828203905081811115610c7957610c786108d9565b5b92915050565b6000610c8a826104fe565b91507fffffffffffffffffffffffffffffffffffffffffffffffffffffffffffffffff8203610cbc57610cbb6108d9565b5b600182019050919050565b6000606082019050610cdc6000830186610631565b8181036020830152610cee81856105f8565b9050610cfd6040830184610631565b949350505050565b600081905092915050565b6000610d1b826105a1565b610d258185610d05565b9350610d358185602086016105bd565b80840191505092915050565b6000610d4d8284610d10565b91508190509291505056fea2646970667358221220b14b4de34448a2cbf34cdc683b245dfd0a494fa3d39ebbaa55cb5b5a7719357664736f6c63430008120033",
					"opcodes": "PUSH1 0x80 PUSH1 0x40 MSTORE PUSH1 0x10 PUSH1 0x0 SSTORE PUSH1 0x0 SLOAD PUSH1 0xA PUSH3 0x1A SWAP2 SWAP1 PUSH3 0x1BE JUMP JUMPDEST PUSH1 0x1 SSTORE CALLVALUE DUP1 ISZERO PUSH3 0x2A JUMPI PUSH1 0x0 DUP1 REVERT JUMPDEST POP PUSH3 0x20F JUMP JUMPDEST PUSH32 0x4E487B7100000000000000000000000000000000000000000000000000000000 PUSH1 0x0 MSTORE PUSH1 0x11 PUSH1 0x4 MSTORE PUSH1 0x24 PUSH1 0x0 REVERT JUMPDEST PUSH1 0x0 DUP2 PUSH1 0x1 SHR SWAP1 POP SWAP2 SWAP1 POP JUMP JUMPDEST PUSH1 0x0 DUP1 DUP3 SWAP2 POP DUP4 SWAP1 POP JUMPDEST PUSH1 0x1 DUP6 GT ISZERO PUSH3 0xBF JUMPI DUP1 DUP7 DIV DUP2 GT ISZERO PUSH3 0x97 JUMPI PUSH3 0x96 PUSH3 0x31 JUMP JUMPDEST JUMPDEST PUSH1 0x1 DUP6 AND ISZERO PUSH3 0xA7 JUMPI DUP1 DUP3 MUL SWAP2 POP JUMPDEST DUP1 DUP2 MUL SWAP1 POP PUSH3 0xB7 DUP6 PUSH3 0x60 JUMP JUMPDEST SWAP5 POP PUSH3 0x77 JUMP JUMPDEST SWAP5 POP SWAP5 SWAP3 POP POP POP JUMP JUMPDEST PUSH1 0x0 DUP3 PUSH3 0xDA JUMPI PUSH1 0x1 SWAP1 POP PUSH3 0x1AD JUMP JUMPDEST DUP2 PUSH3 0xEA JUMPI PUSH1 0x0 SWAP1 POP PUSH3 0x1AD JUMP JUMPDEST DUP2 PUSH1 0x1 DUP2 EQ PUSH3 0x103 JUMPI PUSH1 0x2 DUP2 EQ PUSH3 0x10E JUMPI PUSH3 0x144 JUMP JUMPDEST PUSH1 0x1 SWAP2 POP POP PUSH3 0x1AD JUMP JUMPDEST PUSH1 0xFF DUP5 GT ISZERO PUSH3 0x123 JUMPI PUSH3 0x122 PUSH3 0x31 JUMP JUMPDEST JUMPDEST DUP4 PUSH1 0x2 EXP SWAP2 POP DUP5 DUP3 GT ISZERO PUSH3 0x13D JUMPI PUSH3 0x13C PUSH3 0x31 JUMP JUMPDEST JUMPDEST POP PUSH3 0x1AD JUMP JUMPDEST POP PUSH1 0x20 DUP4 LT PUSH2 0x133 DUP4 LT AND PUSH1 0x4E DUP5 LT PUSH1 0xB DUP5 LT AND OR ISZERO PUSH3 0x17E JUMPI DUP3 DUP3 EXP SWAP1 POP DUP4 DUP2 GT ISZERO PUSH3 0x178 JUMPI PUSH3 0x177 PUSH3 0x31 JUMP JUMPDEST JUMPDEST PUSH3 0x1AD JUMP JUMPDEST PUSH3 0x18D DUP5 DUP5 DUP5 PUSH1 0x1 PUSH3 0x6D JUMP JUMPDEST SWAP3 POP SWAP1 POP DUP2 DUP5 DIV DUP2 GT ISZERO PUSH3 0x1A7 JUMPI PUSH3 0x1A6 PUSH3 0x31 JUMP JUMPDEST JUMPDEST DUP2 DUP2 MUL SWAP1 POP JUMPDEST SWAP4 SWAP3 POP POP POP JUMP JUMPDEST PUSH1 0x0 DUP2 SWAP1 POP SWAP2 SWAP1 POP JUMP JUMPDEST PUSH1 0x0 PUSH3 0x1CB DUP3 PUSH3 0x1B4 JUMP JUMPDEST SWAP2 POP PUSH3 0x1D8 DUP4 PUSH3 0x1B4 JUMP JUMPDEST SWAP3 POP PUSH3 0x207 PUSH32 0xFFFFFFFFFFFFFFFFFFFFFFFFFFFFFFFFFFFFFFFFFFFFFFFFFFFFFFFFFFFFFFFF DUP5 DUP5 PUSH3 0xC8 JUMP JUMPDEST SWAP1 POP SWAP3 SWAP2 POP POP JUMP JUMPDEST PUSH2 0xD8E DUP1 PUSH3 0x21F PUSH1 0x0 CODECOPY PUSH1 0x0 RETURN INVALID PUSH1 0x80 PUSH1 0x40 MSTORE CALLVALUE DUP1 ISZERO PUSH2 0x10 JUMPI PUSH1 0x0 DUP1 REVERT JUMPDEST POP PUSH1 0x4 CALLDATASIZE LT PUSH2 0x4C JUMPI PUSH1 0x0 CALLDATALOAD PUSH1 0xE0 SHR DUP1 PUSH4 0xDEDFFB8 EQ PUSH2 0x51 JUMPI DUP1 PUSH4 0x2052465E EQ PUSH2 0x6D JUMPI DUP1 PUSH4 0x528B7B8F EQ PUSH2 0x9E JUMPI DUP1 PUSH4 0x7BFF0A01 EQ PUSH2 0xCE JUMPI JUMPDEST PUSH1 0x0 DUP1 REVERT JUMPDEST PUSH2 0x6B PUSH1 0x4 DUP1 CALLDATASIZE SUB DUP2 ADD SWAP1 PUSH2 0x66 SWAP2 SWAP1 PUSH2 0x534 JUMP JUMPDEST PUSH2 0xEA JUMP JUMPDEST STOP JUMPDEST PUSH2 0x87 PUSH1 0x4 DUP1 CALLDATASIZE SUB DUP2 ADD SWAP1 PUSH2 0x82 SWAP2 SWAP1 PUSH2 0x574 JUMP JUMPDEST PUSH2 0x1F0 JUMP JUMPDEST PUSH1 0x40 MLOAD PUSH2 0x95 SWAP3 SWAP2 SWAP1 PUSH2 0x640 JUMP JUMPDEST PUSH1 0x40 MLOAD DUP1 SWAP2 SUB SWAP1 RETURN JUMPDEST PUSH2 0xB8 PUSH1 0x4 DUP1 CALLDATASIZE SUB DUP2 ADD SWAP1 PUSH2 0xB3 SWAP2 SWAP1 PUSH2 0x574 JUMP JUMPDEST PUSH2 0x2AC JUMP JUMPDEST PUSH1 0x40 MLOAD PUSH2 0xC5 SWAP2 SWAP1 PUSH2 0x6B1 JUMP JUMPDEST PUSH1 0x40 MLOAD DUP1 SWAP2 SUB SWAP1 RETURN JUMPDEST PUSH2 0xE8 PUSH1 0x4 DUP1 CALLDATASIZE SUB DUP2 ADD SWAP1 PUSH2 0xE3 SWAP2 SWAP1 PUSH2 0x801 JUMP JUMPDEST PUSH2 0x2DF JUMP JUMPDEST STOP JUMPDEST PUSH1 0x3 PUSH1 0x0 DUP4 DUP2 MSTORE PUSH1 0x20 ADD SWAP1 DUP2 MSTORE PUSH1 0x20 ADD PUSH1 0x0 KECCAK256 PUSH1 0x0 SWAP1 SLOAD SWAP1 PUSH2 0x100 EXP SWAP1 DIV PUSH20 0xFFFFFFFFFFFFFFFFFFFFFFFFFFFFFFFFFFFFFFFF AND PUSH20 0xFFFFFFFFFFFFFFFFFFFFFFFFFFFFFFFFFFFFFFFF AND CALLER PUSH20 0xFFFFFFFFFFFFFFFFFFFFFFFFFFFFFFFFFFFFFFFF AND EQ PUSH2 0x155 JUMPI PUSH1 0x0 DUP1 REVERT JUMPDEST PUSH1 0x0 PUSH1 0x2 DUP4 DUP2 SLOAD DUP2 LT PUSH2 0x16B JUMPI PUSH2 0x16A PUSH2 0x84A JUMP JUMPDEST JUMPDEST SWAP1 PUSH1 0x0 MSTORE PUSH1 0x20 PUSH1 0x0 KECCAK256 SWAP1 PUSH1 0x2 MUL ADD SWAP1 POP PUSH1 0x1 SLOAD DUP3 PUSH2 0x189 SWAP2 SWAP1 PUSH2 0x8A8 JUMP JUMPDEST SWAP2 POP PUSH1 0x0 PUSH1 0x2 DUP4 DUP4 PUSH1 0x1 ADD SLOAD PUSH2 0x19F SWAP2 SWAP1 PUSH2 0x908 JUMP JUMPDEST PUSH2 0x1A9 SWAP2 SWAP1 PUSH2 0x93C JUMP JUMPDEST SWAP1 POP PUSH2 0x1EA PUSH1 0x40 MLOAD DUP1 PUSH1 0x40 ADD PUSH1 0x40 MSTORE DUP1 PUSH1 0x6 DUP2 MSTORE PUSH1 0x20 ADD PUSH32 0x4E6F4E616D650000000000000000000000000000000000000000000000000000 DUP2 MSTORE POP DUP3 PUSH2 0x346 JUMP JUMPDEST POP POP POP POP JUMP JUMPDEST PUSH1 0x2 DUP2 DUP2 SLOAD DUP2 LT PUSH2 0x200 JUMPI PUSH1 0x0 DUP1 REVERT JUMPDEST SWAP1 PUSH1 0x0 MSTORE PUSH1 0x20 PUSH1 0x0 KECCAK256 SWAP1 PUSH1 0x2 MUL ADD PUSH1 0x0 SWAP2 POP SWAP1 POP DUP1 PUSH1 0x0 ADD DUP1 SLOAD PUSH2 0x223 SWAP1 PUSH2 0x99C JUMP JUMPDEST DUP1 PUSH1 0x1F ADD PUSH1 0x20 DUP1 SWAP2 DIV MUL PUSH1 0x20 ADD PUSH1 0x40 MLOAD SWAP1 DUP2 ADD PUSH1 0x40 MSTORE DUP1 SWAP3 SWAP2 SWAP1 DUP2 DUP2 MSTORE PUSH1 0x20 ADD DUP3 DUP1 SLOAD PUSH2 0x24F SWAP1 PUSH2 0x99C JUMP JUMPDEST DUP1 ISZERO PUSH2 0x29C JUMPI DUP1 PUSH1 0x1F LT PUSH2 0x271 JUMPI PUSH2 0x100 DUP1 DUP4 SLOAD DIV MUL DUP4 MSTORE SWAP2 PUSH1 0x20 ADD SWAP2 PUSH2 0x29C JUMP JUMPDEST DUP3 ADD SWAP2 SWAP1 PUSH1 0x0 MSTORE PUSH1 0x20 PUSH1 0x0 KECCAK256 SWAP1 JUMPDEST DUP2 SLOAD DUP2 MSTORE SWAP1 PUSH1 0x1 ADD SWAP1 PUSH1 0x20 ADD DUP1 DUP4 GT PUSH2 0x27F JUMPI DUP3 SWAP1 SUB PUSH1 0x1F AND DUP3 ADD SWAP2 JUMPDEST POP POP POP POP POP SWAP1 DUP1 PUSH1 0x1 ADD SLOAD SWAP1 POP DUP3 JUMP JUMPDEST PUSH1 0x3 PUSH1 0x20 MSTORE DUP1 PUSH1 0x0 MSTORE PUSH1 0x40 PUSH1 0x0 KECCAK256 PUSH1 0x0 SWAP2 POP SLOAD SWAP1 PUSH2 0x100 EXP SWAP1 DIV PUSH20 0xFFFFFFFFFFFFFFFFFFFFFFFFFFFFFFFFFFFFFFFF AND DUP2 JUMP JUMPDEST PUSH1 0x0 PUSH1 0x4 PUSH1 0x0 CALLER PUSH20 0xFFFFFFFFFFFFFFFFFFFFFFFFFFFFFFFFFFFFFFFF AND PUSH20 0xFFFFFFFFFFFFFFFFFFFFFFFFFFFFFFFFFFFFFFFF AND DUP2 MSTORE PUSH1 0x20 ADD SWAP1 DUP2 MSTORE PUSH1 0x20 ADD PUSH1 0x0 KECCAK256 SLOAD EQ PUSH2 0x32B JUMPI PUSH1 0x0 DUP1 REVERT JUMPDEST PUSH1 0x0 PUSH2 0x336 DUP3 PUSH2 0x4A5 JUMP JUMPDEST SWAP1 POP PUSH2 0x342 DUP3 DUP3 PUSH2 0x346 JUMP JUMPDEST POP POP JUMP JUMPDEST PUSH1 0x2 PUSH1 0x40 MLOAD DUP1 PUSH1 0x40 ADD PUSH1 0x40 MSTORE DUP1 DUP5 DUP2 MSTORE PUSH1 0x20 ADD DUP4 DUP2 MSTORE POP SWAP1 DUP1 PUSH1 0x1 DUP2 SLOAD ADD DUP1 DUP3 SSTORE DUP1 SWAP2 POP POP PUSH1 0x1 SWAP1 SUB SWAP1 PUSH1 0x0 MSTORE PUSH1 0x20 PUSH1 0x0 KECCAK256 SWAP1 PUSH1 0x2 MUL ADD PUSH1 0x0 SWAP1 SWAP2 SWAP1 SWAP2 SWAP1 SWAP2 POP PUSH1 0x0 DUP3 ADD MLOAD DUP2 PUSH1 0x0 ADD SWAP1 DUP2 PUSH2 0x39B SWAP2 SWAP1 PUSH2 0xB79 JUMP JUMPDEST POP PUSH1 0x20 DUP3 ADD MLOAD DUP2 PUSH1 0x1 ADD SSTORE POP POP PUSH1 0x0 PUSH1 0x1 PUSH1 0x2 DUP1 SLOAD SWAP1 POP PUSH2 0x3BC SWAP2 SWAP1 PUSH2 0xC4B JUMP JUMPDEST SWAP1 POP CALLER PUSH1 0x3 PUSH1 0x0 DUP4 DUP2 MSTORE PUSH1 0x20 ADD SWAP1 DUP2 MSTORE PUSH1 0x20 ADD PUSH1 0x0 KECCAK256 PUSH1 0x0 PUSH2 0x100 EXP DUP2 SLOAD DUP2 PUSH20 0xFFFFFFFFFFFFFFFFFFFFFFFFFFFFFFFFFFFFFFFF MUL NOT AND SWAP1 DUP4 PUSH20 0xFFFFFFFFFFFFFFFFFFFFFFFFFFFFFFFFFFFFFFFF AND MUL OR SWAP1 SSTORE POP PUSH1 0x4 PUSH1 0x0 CALLER PUSH20 0xFFFFFFFFFFFFFFFFFFFFFFFFFFFFFFFFFFFFFFFF AND PUSH20 0xFFFFFFFFFFFFFFFFFFFFFFFFFFFFFFFFFFFFFFFF AND DUP2 MSTORE PUSH1 0x20 ADD SWAP1 DUP2 MSTORE PUSH1 0x20 ADD PUSH1 0x0 KECCAK256 PUSH1 0x0 DUP2 SLOAD DUP1 SWAP3 SWAP2 SWAP1 PUSH2 0x460 SWAP1 PUSH2 0xC7F JUMP JUMPDEST SWAP2 SWAP1 POP SSTORE POP PUSH32 0x88F026AACBBECC90C18411DF4B1185FD8D9BE2470F1962F192BF84A27D0704B7 DUP2 DUP5 DUP5 PUSH1 0x40 MLOAD PUSH2 0x498 SWAP4 SWAP3 SWAP2 SWAP1 PUSH2 0xCC7 JUMP JUMPDEST PUSH1 0x40 MLOAD DUP1 SWAP2 SUB SWAP1 LOG1 POP POP POP JUMP JUMPDEST PUSH1 0x0 DUP1 DUP3 PUSH1 0x40 MLOAD PUSH1 0x20 ADD PUSH2 0x4B9 SWAP2 SWAP1 PUSH2 0xD41 JUMP JUMPDEST PUSH1 0x40 MLOAD PUSH1 0x20 DUP2 DUP4 SUB SUB DUP2 MSTORE SWAP1 PUSH1 0x40 MSTORE DUP1 MLOAD SWAP1 PUSH1 0x20 ADD KECCAK256 PUSH1 0x0 SHR SWAP1 POP PUSH1 0x1 SLOAD DUP2 PUSH2 0x4E2 SWAP2 SWAP1 PUSH2 0x8A8 JUMP JUMPDEST SWAP2 POP POP SWAP2 SWAP1 POP JUMP JUMPDEST PUSH1 0x0 PUSH1 0x40 MLOAD SWAP1 POP SWAP1 JUMP JUMPDEST PUSH1 0x0 DUP1 REVERT JUMPDEST PUSH1 0x0 DUP1 REVERT JUMPDEST PUSH1 0x0 DUP2 SWAP1 POP SWAP2 SWAP1 POP JUMP JUMPDEST PUSH2 0x511 DUP2 PUSH2 0x4FE JUMP JUMPDEST DUP2 EQ PUSH2 0x51C JUMPI PUSH1 0x0 DUP1 REVERT JUMPDEST POP JUMP JUMPDEST PUSH1 0x0 DUP2 CALLDATALOAD SWAP1 POP PUSH2 0x52E DUP2 PUSH2 0x508 JUMP JUMPDEST SWAP3 SWAP2 POP POP JUMP JUMPDEST PUSH1 0x0 DUP1 PUSH1 0x40 DUP4 DUP6 SUB SLT ISZERO PUSH2 0x54B JUMPI PUSH2 0x54A PUSH2 0x4F4 JUMP JUMPDEST JUMPDEST PUSH1 0x0 PUSH2 0x559 DUP6 DUP3 DUP7 ADD PUSH2 0x51F JUMP JUMPDEST SWAP3 POP POP PUSH1 0x20 PUSH2 0x56A DUP6 DUP3 DUP7 ADD PUSH2 0x51F JUMP JUMPDEST SWAP2 POP POP SWAP3 POP SWAP3 SWAP1 POP JUMP JUMPDEST PUSH1 0x0 PUSH1 0x20 DUP3 DUP5 SUB SLT ISZERO PUSH2 0x58A JUMPI PUSH2 0x589 PUSH2 0x4F4 JUMP JUMPDEST JUMPDEST PUSH1 0x0 PUSH2 0x598 DUP5 DUP3 DUP6 ADD PUSH2 0x51F JUMP JUMPDEST SWAP2 POP POP SWAP3 SWAP2 POP POP JUMP JUMPDEST PUSH1 0x0 DUP2 MLOAD SWAP1 POP SWAP2 SWAP1 POP JUMP JUMPDEST PUSH1 0x0 DUP3 DUP3 MSTORE PUSH1 0x20 DUP3 ADD SWAP1 POP SWAP3 SWAP2 POP POP JUMP JUMPDEST PUSH1 0x0 JUMPDEST DUP4 DUP2 LT ISZERO PUSH2 0x5DB JUMPI DUP1 DUP3 ADD MLOAD DUP2 DUP5 ADD MSTORE PUSH1 0x20 DUP2 ADD SWAP1 POP PUSH2 0x5C0 JUMP JUMPDEST PUSH1 0x0 DUP5 DUP5 ADD MSTORE POP POP POP POP JUMP JUMPDEST PUSH1 0x0 PUSH1 0x1F NOT PUSH1 0x1F DUP4 ADD AND SWAP1 POP SWAP2 SWAP1 POP JUMP JUMPDEST PUSH1 0x0 PUSH2 0x603 DUP3 PUSH2 0x5A1 JUMP JUMPDEST PUSH2 0x60D DUP2 DUP6 PUSH2 0x5AC JUMP JUMPDEST SWAP4 POP PUSH2 0x61D DUP2 DUP6 PUSH1 0x20 DUP7 ADD PUSH2 0x5BD JUMP JUMPDEST PUSH2 0x626 DUP2 PUSH2 0x5E7 JUMP JUMPDEST DUP5 ADD SWAP2 POP POP SWAP3 SWAP2 POP POP JUMP JUMPDEST PUSH2 0x63A DUP2 PUSH2 0x4FE JUMP JUMPDEST DUP3 MSTORE POP POP JUMP JUMPDEST PUSH1 0x0 PUSH1 0x40 DUP3 ADD SWAP1 POP DUP2 DUP2 SUB PUSH1 0x0 DUP4 ADD MSTORE PUSH2 0x65A DUP2 DUP6 PUSH2 0x5F8 JUMP JUMPDEST SWAP1 POP PUSH2 0x669 PUSH1 0x20 DUP4 ADD DUP5 PUSH2 0x631 JUMP JUMPDEST SWAP4 SWAP3 POP POP POP JUMP JUMPDEST PUSH1 0x0 PUSH20 0xFFFFFFFFFFFFFFFFFFFFFFFFFFFFFFFFFFFFFFFF DUP3 AND SWAP1 POP SWAP2 SWAP1 POP JUMP JUMPDEST PUSH1 0x0 PUSH2 0x69B DUP3 PUSH2 0x670 JUMP JUMPDEST SWAP1 POP SWAP2 SWAP1 POP JUMP JUMPDEST PUSH2 0x6AB DUP2 PUSH2 0x690 JUMP JUMPDEST DUP3 MSTORE POP POP JUMP JUMPDEST PUSH1 0x0 PUSH1 0x20 DUP3 ADD SWAP1 POP PUSH2 0x6C6 PUSH1 0x0 DUP4 ADD DUP5 PUSH2 0x6A2 JUMP JUMPDEST SWAP3 SWAP2 POP POP JUMP JUMPDEST PUSH1 0x0 DUP1 REVERT JUMPDEST PUSH1 0x0 DUP1 REVERT JUMPDEST PUSH32 0x4E487B7100000000000000000000000000000000000000000000000000000000 PUSH1 0x0 MSTORE PUSH1 0x41 PUSH1 0x4 MSTORE PUSH1 0x24 PUSH1 0x0 REVERT JUMPDEST PUSH2 0x70E DUP3 PUSH2 0x5E7 JUMP JUMPDEST DUP2 ADD DUP2 DUP2 LT PUSH8 0xFFFFFFFFFFFFFFFF DUP3 GT OR ISZERO PUSH2 0x72D JUMPI PUSH2 0x72C PUSH2 0x6D6 JUMP JUMPDEST JUMPDEST DUP1 PUSH1 0x40 MSTORE POP POP POP JUMP JUMPDEST PUSH1 0x0 PUSH2 0x740 PUSH2 0x4EA JUMP JUMPDEST SWAP1 POP PUSH2 0x74C DUP3 DUP3 PUSH2 0x705 JUMP JUMPDEST SWAP2 SWAP1 POP JUMP JUMPDEST PUSH1 0x0 PUSH8 0xFFFFFFFFFFFFFFFF DUP3 GT ISZERO PUSH2 0x76C JUMPI PUSH2 0x76B PUSH2 0x6D6 JUMP JUMPDEST JUMPDEST PUSH2 0x775 DUP3 PUSH2 0x5E7 JUMP JUMPDEST SWAP1 POP PUSH1 0x20 DUP2 ADD SWAP1 POP SWAP2 SWAP1 POP JUMP JUMPDEST DUP3 DUP2 DUP4 CALLDATACOPY PUSH1 0x0 DUP4 DUP4 ADD MSTORE POP POP POP JUMP JUMPDEST PUSH1 0x0 PUSH2 0x7A4 PUSH2 0x79F DUP5 PUSH2 0x751 JUMP JUMPDEST PUSH2 0x736 JUMP JUMPDEST SWAP1 POP DUP3 DUP2 MSTORE PUSH1 0x20 DUP2 ADD DUP5 DUP5 DUP5 ADD GT ISZERO PUSH2 0x7C0 JUMPI PUSH2 0x7BF PUSH2 0x6D1 JUMP JUMPDEST JUMPDEST PUSH2 0x7CB DUP5 DUP3 DUP6 PUSH2 0x782 JUMP JUMPDEST POP SWAP4 SWAP3 POP POP POP JUMP JUMPDEST PUSH1 0x0 DUP3 PUSH1 0x1F DUP4 ADD SLT PUSH2 0x7E8 JUMPI PUSH2 0x7E7 PUSH2 0x6CC JUMP JUMPDEST JUMPDEST DUP2 CALLDATALOAD PUSH2 0x7F8 DUP5 DUP3 PUSH1 0x20 DUP7 ADD PUSH2 0x791 JUMP JUMPDEST SWAP2 POP POP SWAP3 SWAP2 POP POP JUMP JUMPDEST PUSH1 0x0 PUSH1 0x20 DUP3 DUP5 SUB SLT ISZERO PUSH2 0x817 JUMPI PUSH2 0x816 PUSH2 0x4F4 JUMP JUMPDEST JUMPDEST PUSH1 0x0 DUP3 ADD CALLDATALOAD PUSH8 0xFFFFFFFFFFFFFFFF DUP2 GT ISZERO PUSH2 0x835 JUMPI PUSH2 0x834 PUSH2 0x4F9 JUMP JUMPDEST JUMPDEST PUSH2 0x841 DUP5 DUP3 DUP6 ADD PUSH2 0x7D3 JUMP JUMPDEST SWAP2 POP POP SWAP3 SWAP2 POP POP JUMP JUMPDEST PUSH32 0x4E487B7100000000000000000000000000000000000000000000000000000000 PUSH1 0x0 MSTORE PUSH1 0x32 PUSH1 0x4 MSTORE PUSH1 0x24 PUSH1 0x0 REVERT JUMPDEST PUSH32 0x4E487B7100000000000000000000000000000000000000000000000000000000 PUSH1 0x0 MSTORE PUSH1 0x12 PUSH1 0x4 MSTORE PUSH1 0x24 PUSH1 0x0 REVERT JUMPDEST PUSH1 0x0 PUSH2 0x8B3 DUP3 PUSH2 0x4FE JUMP JUMPDEST SWAP2 POP PUSH2 0x8BE DUP4 PUSH2 0x4FE JUMP JUMPDEST SWAP3 POP DUP3 PUSH2 0x8CE JUMPI PUSH2 0x8CD PUSH2 0x879 JUMP JUMPDEST JUMPDEST DUP3 DUP3 MOD SWAP1 POP SWAP3 SWAP2 POP POP JUMP JUMPDEST PUSH32 0x4E487B7100000000000000000000000000000000000000000000000000000000 PUSH1 0x0 MSTORE PUSH1 0x11 PUSH1 0x4 MSTORE PUSH1 0x24 PUSH1 0x0 REVERT JUMPDEST PUSH1 0x0 PUSH2 0x913 DUP3 PUSH2 0x4FE JUMP JUMPDEST SWAP2 POP PUSH2 0x91E DUP4 PUSH2 0x4FE JUMP JUMPDEST SWAP3 POP DUP3 DUP3 ADD SWAP1 POP DUP1 DUP3 GT ISZERO PUSH2 0x936 JUMPI PUSH2 0x935 PUSH2 0x8D9 JUMP JUMPDEST JUMPDEST SWAP3 SWAP2 POP POP JUMP JUMPDEST PUSH1 0x0 PUSH2 0x947 DUP3 PUSH2 0x4FE JUMP JUMPDEST SWAP2 POP PUSH2 0x952 DUP4 PUSH2 0x4FE JUMP JUMPDEST SWAP3 POP DUP3 PUSH2 0x962 JUMPI PUSH2 0x961 PUSH2 0x879 JUMP JUMPDEST JUMPDEST DUP3 DUP3 DIV SWAP1 POP SWAP3 SWAP2 POP POP JUMP JUMPDEST PUSH32 0x4E487B7100000000000000000000000000000000000000000000000000000000 PUSH1 0x0 MSTORE PUSH1 0x22 PUSH1 0x4 MSTORE PUSH1 0x24 PUSH1 0x0 REVERT JUMPDEST PUSH1 0x0 PUSH1 0x2 DUP3 DIV SWAP1 POP PUSH1 0x1 DUP3 AND DUP1 PUSH2 0x9B4 JUMPI PUSH1 0x7F DUP3 AND SWAP2 POP JUMPDEST PUSH1 0x20 DUP3 LT DUP2 SUB PUSH2 0x9C7 JUMPI PUSH2 0x9C6 PUSH2 0x96D JUMP JUMPDEST JUMPDEST POP SWAP2 SWAP1 POP JUMP JUMPDEST PUSH1 0x0 DUP2 SWAP1 POP DUP2 PUSH1 0x0 MSTORE PUSH1 0x20 PUSH1 0x0 KECCAK256 SWAP1 POP SWAP2 SWAP1 POP JUMP JUMPDEST PUSH1 0x0 PUSH1 0x20 PUSH1 0x1F DUP4 ADD DIV SWAP1 POP SWAP2 SWAP1 POP JUMP JUMPDEST PUSH1 0x0 DUP3 DUP3 SHL SWAP1 POP SWAP3 SWAP2 POP POP JUMP JUMPDEST PUSH1 0x0 PUSH1 0x8 DUP4 MUL PUSH2 0xA2F PUSH32 0xFFFFFFFFFFFFFFFFFFFFFFFFFFFFFFFFFFFFFFFFFFFFFFFFFFFFFFFFFFFFFFFF DUP3 PUSH2 0x9F2 JUMP JUMPDEST PUSH2 0xA39 DUP7 DUP4 PUSH2 0x9F2 JUMP JUMPDEST SWAP6 POP DUP1 NOT DUP5 AND SWAP4 POP DUP1 DUP7 AND DUP5 OR SWAP3 POP POP POP SWAP4 SWAP3 POP POP POP JUMP JUMPDEST PUSH1 0x0 DUP2 SWAP1 POP SWAP2 SWAP1 POP JUMP JUMPDEST PUSH1 0x0 PUSH2 0xA76 PUSH2 0xA71 PUSH2 0xA6C DUP5 PUSH2 0x4FE JUMP JUMPDEST PUSH2 0xA51 JUMP JUMPDEST PUSH2 0x4FE JUMP JUMPDEST SWAP1 POP SWAP2 SWAP1 POP JUMP JUMPDEST PUSH1 0x0 DUP2 SWAP1 POP SWAP2 SWAP1 POP JUMP JUMPDEST PUSH2 0xA90 DUP4 PUSH2 0xA5B JUMP JUMPDEST PUSH2 0xAA4 PUSH2 0xA9C DUP3 PUSH2 0xA7D JUMP JUMPDEST DUP5 DUP5 SLOAD PUSH2 0x9FF JUMP JUMPDEST DUP3 SSTORE POP POP POP POP JUMP JUMPDEST PUSH1 0x0 SWAP1 JUMP JUMPDEST PUSH2 0xAB9 PUSH2 0xAAC JUMP JUMPDEST PUSH2 0xAC4 DUP2 DUP5 DUP5 PUSH2 0xA87 JUMP JUMPDEST POP POP POP JUMP JUMPDEST JUMPDEST DUP2 DUP2 LT ISZERO PUSH2 0xAE8 JUMPI PUSH2 0xADD PUSH1 0x0 DUP3 PUSH2 0xAB1 JUMP JUMPDEST PUSH1 0x1 DUP2 ADD SWAP1 POP PUSH2 0xACA JUMP JUMPDEST POP POP JUMP JUMPDEST PUSH1 0x1F DUP3 GT ISZERO PUSH2 0xB2D JUMPI PUSH2 0xAFE DUP2 PUSH2 0x9CD JUMP JUMPDEST PUSH2 0xB07 DUP5 PUSH2 0x9E2 JUMP JUMPDEST DUP2 ADD PUSH1 0x20 DUP6 LT ISZERO PUSH2 0xB16 JUMPI DUP2 SWAP1 POP JUMPDEST PUSH2 0xB2A PUSH2 0xB22 DUP6 PUSH2 0x9E2 JUMP JUMPDEST DUP4 ADD DUP3 PUSH2 0xAC9 JUMP JUMPDEST POP POP JUMPDEST POP POP POP JUMP JUMPDEST PUSH1 0x0 DUP3 DUP3 SHR SWAP1 POP SWAP3 SWAP2 POP POP JUMP JUMPDEST PUSH1 0x0 PUSH2 0xB50 PUSH1 0x0 NOT DUP5 PUSH1 0x8 MUL PUSH2 0xB32 JUMP JUMPDEST NOT DUP1 DUP4 AND SWAP2 POP POP SWAP3 SWAP2 POP POP JUMP JUMPDEST PUSH1 0x0 PUSH2 0xB69 DUP4 DUP4 PUSH2 0xB3F JUMP JUMPDEST SWAP2 POP DUP3 PUSH1 0x2 MUL DUP3 OR SWAP1 POP SWAP3 SWAP2 POP POP JUMP JUMPDEST PUSH2 0xB82 DUP3 PUSH2 0x5A1 JUMP JUMPDEST PUSH8 0xFFFFFFFFFFFFFFFF DUP2 GT ISZERO PUSH2 0xB9B JUMPI PUSH2 0xB9A PUSH2 0x6D6 JUMP JUMPDEST JUMPDEST PUSH2 0xBA5 DUP3 SLOAD PUSH2 0x99C JUMP JUMPDEST PUSH2 0xBB0 DUP3 DUP3 DUP6 PUSH2 0xAEC JUMP JUMPDEST PUSH1 0x0 PUSH1 0x20 SWAP1 POP PUSH1 0x1F DUP4 GT PUSH1 0x1 DUP2 EQ PUSH2 0xBE3 JUMPI PUSH1 0x0 DUP5 ISZERO PUSH2 0xBD1 JUMPI DUP3 DUP8 ADD MLOAD SWAP1 POP JUMPDEST PUSH2 0xBDB DUP6 DUP3 PUSH2 0xB5D JUMP JUMPDEST DUP7 SSTORE POP PUSH2 0xC43 JUMP JUMPDEST PUSH1 0x1F NOT DUP5 AND PUSH2 0xBF1 DUP7 PUSH2 0x9CD JUMP JUMPDEST PUSH1 0x0 JUMPDEST DUP3 DUP2 LT ISZERO PUSH2 0xC19 JUMPI DUP5 DUP10 ADD MLOAD DUP3 SSTORE PUSH1 0x1 DUP3 ADD SWAP2 POP PUSH1 0x20 DUP6 ADD SWAP5 POP PUSH1 0x20 DUP2 ADD SWAP1 POP PUSH2 0xBF4 JUMP JUMPDEST DUP7 DUP4 LT ISZERO PUSH2 0xC36 JUMPI DUP5 DUP10 ADD MLOAD PUSH2 0xC32 PUSH1 0x1F DUP10 AND DUP3 PUSH2 0xB3F JUMP JUMPDEST DUP4 SSTORE POP JUMPDEST PUSH1 0x1 PUSH1 0x2 DUP9 MUL ADD DUP9 SSTORE POP POP POP JUMPDEST POP POP POP POP POP POP JUMP JUMPDEST PUSH1 0x0 PUSH2 0xC56 DUP3 PUSH2 0x4FE JUMP JUMPDEST SWAP2 POP PUSH2 0xC61 DUP4 PUSH2 0x4FE JUMP JUMPDEST SWAP3 POP DUP3 DUP3 SUB SWAP1 POP DUP2 DUP2 GT ISZERO PUSH2 0xC79 JUMPI PUSH2 0xC78 PUSH2 0x8D9 JUMP JUMPDEST JUMPDEST SWAP3 SWAP2 POP POP JUMP JUMPDEST PUSH1 0x0 PUSH2 0xC8A DUP3 PUSH2 0x4FE JUMP JUMPDEST SWAP2 POP PUSH32 0xFFFFFFFFFFFFFFFFFFFFFFFFFFFFFFFFFFFFFFFFFFFFFFFFFFFFFFFFFFFFFFFF DUP3 SUB PUSH2 0xCBC JUMPI PUSH2 0xCBB PUSH2 0x8D9 JUMP JUMPDEST JUMPDEST PUSH1 0x1 DUP3 ADD SWAP1 POP SWAP2 SWAP1 POP JUMP JUMPDEST PUSH1 0x0 PUSH1 0x60 DUP3 ADD SWAP1 POP PUSH2 0xCDC PUSH1 0x0 DUP4 ADD DUP7 PUSH2 0x631 JUMP JUMPDEST DUP2 DUP2 SUB PUSH1 0x20 DUP4 ADD MSTORE PUSH2 0xCEE DUP2 DUP6 PUSH2 0x5F8 JUMP JUMPDEST SWAP1 POP PUSH2 0xCFD PUSH1 0x40 DUP4 ADD DUP5 PUSH2 0x631 JUMP JUMPDEST SWAP5 SWAP4 POP POP POP POP JUMP JUMPDEST PUSH1 0x0 DUP2 SWAP1 POP SWAP3 SWAP2 POP POP JUMP JUMPDEST PUSH1 0x0 PUSH2 0xD1B DUP3 PUSH2 0x5A1 JUMP JUMPDEST PUSH2 0xD25 DUP2 DUP6 PUSH2 0xD05 JUMP JUMPDEST SWAP4 POP PUSH2 0xD35 DUP2 DUP6 PUSH1 0x20 DUP7 ADD PUSH2 0x5BD JUMP JUMPDEST DUP1 DUP5 ADD SWAP2 POP POP SWAP3 SWAP2 POP POP JUMP JUMPDEST PUSH1 0x0 PUSH2 0xD4D DUP3 DUP5 PUSH2 0xD10 JUMP JUMPDEST SWAP2 POP DUP2 SWAP1 POP SWAP3 SWAP2 POP POP JUMP INVALID LOG2 PUSH5 0x6970667358 0x22 SLT KECCAK256 0xB1 0x4B 0x4D 0xE3 PREVRANDAO BASEFEE LOG2 0xCB RETURN 0x4C 0xDC PUSH9 0x3B245DFD0A494FA3D3 SWAP15 0xBB 0xAA SSTORE 0xCB JUMPDEST GAS PUSH24 0x19357664736F6C6343000812003300000000000000000000 "
				},
				"gasEstimates": {
					"creation": {
						"codeDepositCost": "694000",
						"executionCost": "infinite",
						"totalCost": "infinite"
					},
					"external": {
						"createRandomZombie(string)": "infinite",
						"feedAndMultiply(uint256,uint256)": "infinite",
						"zombieToOwner(uint256)": "2861",
						"zombies(uint256)": "infinite"
					}
				},
				"methodIdentifiers": {
					"createRandomZombie(string)": "7bff0a01",
					"feedAndMultiply(uint256,uint256)": "0dedffb8",
					"zombieToOwner(uint256)": "528b7b8f",
					"zombies(uint256)": "2052465e"
				}
			},
			"storageLayout": {
				"storage": [
					{
						"astId": 12,
						"contract": "1/zombiefeeding.sol:ZombieFeeding",
						"label": "dnaDigits",
						"offset": 0,
						"slot": "0",
						"type": "t_uint256"
					},
					{
						"astId": 17,
						"contract": "1/zombiefeeding.sol:ZombieFeeding",
						"label": "dnaModulus",
						"offset": 0,
						"slot": "1",
						"type": "t_uint256"
					},
					{
						"astId": 26,
						"contract": "1/zombiefeeding.sol:ZombieFeeding",
						"label": "zombies",
						"offset": 0,
						"slot": "2",
						"type": "t_array(t_struct(Zombie)22_storage)dyn_storage"
					},
					{
						"astId": 30,
						"contract": "1/zombiefeeding.sol:ZombieFeeding",
						"label": "zombieToOwner",
						"offset": 0,
						"slot": "3",
						"type": "t_mapping(t_uint256,t_address)"
					},
					{
						"astId": 34,
						"contract": "1/zombiefeeding.sol:ZombieFeeding",
						"label": "ownerZombieCount",
						"offset": 0,
						"slot": "4",
						"type": "t_mapping(t_address,t_uint256)"
					}
				],
				"types": {
					"t_address": {
						"encoding": "inplace",
						"label": "address",
						"numberOfBytes": "20"
					},
					"t_array(t_struct(Zombie)22_storage)dyn_storage": {
						"base": "t_struct(Zombie)22_storage",
						"encoding": "dynamic_array",
						"label": "struct ZombieFactory.Zombie[]",
						"numberOfBytes": "32"
					},
					"t_mapping(t_address,t_uint256)": {
						"encoding": "mapping",
						"key": "t_address",
						"label": "mapping(address => uint256)",
						"numberOfBytes": "32",
						"value": "t_uint256"
					},
					"t_mapping(t_uint256,t_address)": {
						"encoding": "mapping",
						"key": "t_uint256",
						"label": "mapping(uint256 => address)",
						"numberOfBytes": "32",
						"value": "t_address"
					},
					"t_string_storage": {
						"encoding": "bytes",
						"label": "string",
						"numberOfBytes": "32"
					},
					"t_struct(Zombie)22_storage": {
						"encoding": "inplace",
						"label": "struct ZombieFactory.Zombie",
						"members": [
							{
								"astId": 19,
								"contract": "1/zombiefeeding.sol:ZombieFeeding",
								"label": "name",
								"offset": 0,
								"slot": "0",
								"type": "t_string_storage"
							},
							{
								"astId": 21,
								"contract": "1/zombiefeeding.sol:ZombieFeeding",
								"label": "dna",
								"offset": 0,
								"slot": "1",
								"type": "t_uint256"
							}
						],
						"numberOfBytes": "64"
					},
					"t_uint256": {
						"encoding": "inplace",
						"label": "uint256",
						"numberOfBytes": "32"
					}
				}
			},
			"userdoc": {
				"kind": "user",
				"methods": {},
				"version": 1
			}
		}
	}
}